:020000040800F2
:10000000181A002001010008090100080B0100086E
:100010000D0100080F010008110100080000000098
:1000200000000000000000000000000013010008B4
:100030001501000800000000170100081901000860
:100040001B0100081B0100081B010008552B0008BC
:100050001B0100081B0100081B0100088912000891
:100060001B0100081B0100081B010008610E0008AD
:100070001B0100081B0100081B0100081B010008F0
:100080001B0100081B0100081B0100081B010008E0
:100090001B0100081B0100081B0100081B010008D0
:1000A0001B0100081B0100081B0100081B010008C0
:1000B0001B010008A9340008913900081B01000841
:1000C0001B0100081B0100081B0100081B010008A0
:1000D0001B010008A93B00081B0100081B010008C8
:1000E0001B0100081B0100081B010008DFF80CD0F1
:1000F00000F080FC00480047A1570008181A0020B3
:100100000648804706480047FEE7FEE7FEE7FEE7B1
:10011000FEE7FEE7FEE7FEE7FEE7FEE7E93300085D
:10012000ED00000840EA01039B0703D009E008C97D
:10013000121F08C0042AFAD203E011F8013B00F8AC
:10014000013B521EF9D27047F0B480EA0102D40F8D
:100150004200B2EB410F02D20246084611464A0065
:1001600042D0C30DDDB2C1F3C752AD1A202D35DA2E
:10017000C1F3160141F4000204B15242C5F1200658
:1001800002FA06F12A411044B3EBD05F23D0C4B188
:10019000012DA0EBC35009DCF0BC4FF0004202EA95
:1001A000C352DBB200F5000000F069BB400000F173
:1001B000807000EBC350A0F1807040EAD17049001C
:1001C00009E0490841EAC071A0EBC35000F5000006
:1001D000400800EBC350F0BC00F048BB6142012274
:1001E00002EB4101001BF6E7F0BC704781F00041D3
:1001F000AAE780F00040A7E780EA010210B502F00C
:100200000043400022D04A001FD0010E01EB1261D2
:10021000C0F35600C2F3560240F4000042F400025C
:10022000A0FB022000047F39140400D0401C50EAD7
:10023000124001D44000491EC2B20C0604EBD0109B
:10024000401C4008802A02D003E0002010BD20F0AE
:100250000100002900DA0020184310BD30B480EA04
:10026000010202F0004530F0004221F0004013D0BE
:1002700090B1C30DD40DC2F31601C0F31600E41AF9
:1002800041F4000140F400027D34914201D3641C2A
:1002900000E04900002C02DA30BC002070474FF427
:1002A00000000023914201D3891A034340084FEA1A
:1002B0004101F7D151B1914202D14FF0004105E027
:1002C00002D24FF0010101E06FF0010103EBC450D5
:1002D000284430BC00F0CABA2DE9FE4F804681EABE
:1002E0000300C00F0C46009021F0004123F00045B0
:1002F000B8EB0200A94105D24046214690461C4673
:100300000B46024623F00040104347D0270DC7F3A9
:100310000A00C3F30A510290401A019040286BDA98
:10032000C3F3130040F4801B0098924620B10023D1
:10033000D2EB030A63EB0B0B01985946C0F1400264
:10034000504600F062FA06460D4650465946019A5C
:1003500000F07AFA10EB08006141002487EA11529C
:1003600084EAE7731A4340D0009A62B3019A012AE3
:100370004FEA075215DC001B61EB02014FF000420F
:1003800002EA0752CDE90042001C41F580113246D5
:100390002B4600F0B1FA03B0BDE8F08F404621468D
:1003A000F9E7001B61EB0201001C41F58013001806
:1003B0005B412018A2F5001747EB030140EAD57016
:1003C000B6196D4111E06D084FEA360645EAC07571
:1003D0004FEA0752001B61EB0201001C41F580113E
:1003E00049084FEA30000019514132462B4603B00C
:1003F000BDE8F04F00F071BA0098012240000023E0
:10040000D0EB020263EBE073009821464FEAE07400
:10041000B8EB000061EB0401E9E783F000435BE720
:1004200081F0004158E72DE9FE4F81EA030404F012
:10043000004421F0004100944FF0000B23F00043F2
:1004400050EA01045ED052EA03045BD0C3F30A54BD
:10045000C1F30A552C44A4F2F3340194A0FB0254D6
:10046000C1F3130141F48011C3F3130343F4801368
:1004700001FB024400FB034E840A970A44EA8154BC
:1004800047EA8357A4FB076802958D0A05FB078599
:100490004FEA932C04FB0C542705029D4FEA0658A3
:1004A00047EA1637B5EB08056EEB070C870E920E80
:1004B00047EA811742EA8312A7FB0201B6EB0B0160
:1004C00064EB00042B0D43EA0C335E1844EB1C5024
:1004D000DA465146E7FB0201C5F313044FEA0B333A
:1004E00043EA14534FEA0432019C43EA0603A4F1A1
:1004F0000C040294009CCDE900B400F0FDF903B0B7
:10050000BDE8F08F00200146F9E72DE9F04D81EAC2
:10051000030404F0004B21F0004514464FF0000A9C
:1005200023F0004150EA050220D054EA01021DD018
:10053000C5F30A570246C5F31303C1F31300C1F311
:100540000A5640F4801543F48013A7EB0608101BED
:10055000D64608F2FD3873EB050002D308F1010816
:1005600001E092185B41B8F1000F03DA0020014668
:10057000BDE8F08D00204FF48011064684460EE061
:10058000171B73EB050705D3121B63EB050306432B
:100590004CEA010C49084FEA300092185B4150EADE
:1005A0000107EDD152EA030012D082EA040083EA87
:1005B0000501084305D0101BAB4106D201220023E0
:1005C00006E000224FF0004302E06FF001025310FA
:1005D0001AEB06004CEB085110EB0A0041EB0B0143
:1005E000BDE8F04D00F079B9C10F80EAE070084431
:1005F000CA079623002100F042B996230022114633
:1006000000F03DB90EB5C10F80EAE0700844CA079A
:10061000002140F233438DE80E000A460B4600F0FD
:100620006BF903B000BD0EB540F2334102910021D9
:10063000CDE900110A460B4600F05EF903B000BD9B
:1006400000F0004220F00040C10DC0F3160040F45D
:1006500000007F2901DA00207047962903DCC1F1F0
:100660009601C84001E096398840002AF4D0404203
:10067000704720F00040C10DC0F3160040F40000A8
:100680007F2901DA00207047962903DCC1F1960129
:10069000C840704796398840704770B5C1F30A5218
:1006A00001F000450024C1F3130140F2FF3341F48F
:1006B00080119A4201DA002070BD40F233439A4221
:1006C000A2F2334203DC524200F0AEF800E0904068
:1006D0002C43F1D0404270BDC1F30A5210B5C1F3B2
:1006E000130140F2FF3341F480119A4201DA0020F5
:1006F00010BD40F233439A42A2F2334203DC52422D
:1007000000F092F810BD904010BD00F0004230F0B3
:1007100000400AD0C10D01F56071C0F3160042EA35
:100720000151C2084007114370470020014670473D
:1007300001F0004330B421F0004150EA010206D03C
:100740000A0DA2F56072C1F31301002A02DC30BC6D
:1007500000207047440F44EAC104C100E01830BCD7
:1007600000EBC25000F082B8002801DBC0F100406D
:10077000002901DBC1F100418142704730B50B46D1
:10078000014600202022012409E021FA02F59D42C1
:1007900005D303FA02F5491B04FA02F52844151E95
:1007A000A2F10102F1DC30BD2DE9F05F0546002029
:1007B00092469B4688460646814640241BE02846D2
:1007C00041464746224600F02FF853465A46C01A83
:1007D000914110D311461846224600F016F82D1A02
:1007E00067EB01084F4622460120002100F00DF87A
:1007F00017EB00094E41201EA4F10104DFDC48463E
:1008000031462A464346BDE8F09F202A04DB203AC1
:1008100000FA02F1002070479140C2F1200320FA53
:1008200003F3194390407047202A04DB203A21FA51
:1008300002F00021704721FA02F3D040C2F12002F9
:100840009140084319467047202A06DBCB17203A0F
:1008500041FA02F043EAE07306E041FA02F3D040C5
:10086000C2F1200291400843194670470029A8BFF1
:100870007047401C490008BF20F00100704710B4C9
:10088000B0FA80FC00FA0CF050EA010404BF10BC7E
:10089000704749B1CCF1200421FA04F411FA0CF1AB
:1008A00018BF012121430843A3EB0C01CB1D4FEAE4
:1008B00000614FEA102042BF002010BC704700EBDF
:1008C000C35010440029A4BF10BC7047401C49000D
:1008D00008BF20F0010010BC704710B5141E73F162
:1008E000000408DA401C41F1000192185B411A43F0
:1008F00001D120F0010010BD2DE9F04D92469B463C
:1009000011B1B1FA81F202E0B0FA80F220329046E1
:10091000FFF77BFF04460F4640EA0A0041EA0B015D
:1009200053465A46084313D0114653EA010019D0E2
:10093000C8F140025046FFF777FF05460E46504685
:1009400059464246FFF761FF084305D0012004E005
:1009500020463946BDE8F08D0020054346EAE076A2
:100960002C4337430A986305E40AA0EB08000022F1
:10097000FD0A44EA47540A3002D500200146E9E75F
:10098000010510196941DDE9084500196941BDE813
:10099000F04DA2E7C1F30A52C1F3130140F2FF3355
:1009A00041F480119A4202DA00200146704740F279
:1009B00033439A42A2F2334202DC5242FFF734BF81
:1009C000FFF723BF30B5041E71F1000404DB4FF0C4
:1009D0000044404264EB0101141E73F1000405DB86
:1009E0001C464FF00043524263EB0403994208BF98
:1009F000904230BD064C074D06E0E06840F0010330
:100A000094E8070098471034AC42F6D3FFF772FB26
:100A100014B4000834B4000870B58C1810F8015BE9
:100A200015F0070301D110F8013B2A1106D110F887
:100A3000012B03E010F8016B01F8016B5B1EF9D18B
:100A40002B0705D40023521E0DD401F8013BFAE711
:100A500010F8013BCB1A921C03E013F8015B01F87C
:100A6000015B521EF9D5A142D8D3002070BD21B13F
:100A7000826842F00102826003E0826822F0010293
:100A80008260704721B1826842F48072826003E024
:100A9000826822F480728260704721B1826842F4D9
:100AA0008012826003E0826822F4801282607047C4
:100AB000014600208A6802F004020AB1012000E029
:100AC00000207047014600208A6802F008020AB13F
:100AD000012000E00020704730B5024600200023CE
:100AE00050680F4C20400D790C6844EA05242043DF
:100AF000506090680B4C2040D1E902542C434D7952
:100B000044EA450420439060D06A20F470000C7CD5
:100B1000641EE4B2234340EA0350D06230BD0000BB
:100B2000FFFEF0FFFDF7F1FF00B585B000F0B8FC67
:100B30000121480201F042FE0020009001208DF8C2
:100B400004008DF805004FF4C020029000200390AF
:100B500009208DF8100069462E48FFF7BDFF4FF4BD
:100B6000004001F0EFFD072301220021294800F099
:100B700053F8072302220121264800F04DF80723ED
:100B800003220221234800F047F80723042203210F
:100B9000204800F041F80723052204211D4800F0F9
:100BA0003BF80723062205211A4800F035F80723F1
:100BB0001A460621174800F02FF807230822194685
:100BC000144800F029F8072309220821114800F0F1
:100BD00023F801210F48FFF755FF01210D48FFF7CA
:100BE00046FF0C4800F074F800BF0A48FFF76AFFA0
:100BF0000028FAD1074800F070F800BF0548FFF759
:100C000057FF0028FAD101210248FFF746FF05B03F
:100C100000BD000000240140F0B504460D46002050
:100C20000021092D11DDE068A5F10A0606EB460753
:100C3000072606FA07F18843A5F10A0606EB4606E1
:100C400003FA06F10843E0600CE0206905EB450774
:100C5000072606FA07F1884305EB450603FA06F175
:100C600008432061072A0FDA606B561E06EB8607E1
:100C70001F2606FA07F18843561E06EB860605FA7C
:100C800006F10843606322E00D2A0FDA206BD61FBD
:100C900006EB86071F2606FA07F18843D61F06EBE8
:100CA000860605FA06F10843206310E0E06AA2F127
:100CB0000D0606EB86071F2606FA07F18843A2F108
:100CC0000D0606EB860605FA06F10843E062F0BD64
:100CD000816841F0080181607047816841F004013A
:100CE0008160704708B50121042001F067FD4FF4D1
:100CF0008060ADF8000010208DF8030003208DF80F
:100D000002006946044800F009FC4FF48061024883
:100D100000F0E1FC08BD00000008014010B5012012
:100D200001F06CFD002001F069FD10BD08B5014621
:100D3000002000900348009000980844009000981C
:100D4000008808BD006C004008B500220092044AEB
:100D50000092009A02440092009A116008BD0000BF
:100D6000006C004070B588B0054600246FE0C4EB0D
:100D7000C400394901EB800005EB0413D3E901629B
:100D80001968DB68C0E90162C3600160C4EBC4019B
:100D9000314A02EB8101C868012101F00FFDC4EB6B
:100DA000C4002D4901EB8000008901A921F824002D
:100DB000C4EBC400284911F8200001A901EB84010B
:100DC000C87001AA02EB8401C4EBC402224B03EBFE
:100DD0008202506800F0A2FB0120C4EBC4011E4A4D
:100DE00002EB810108740021C4EBC40002EB800017
:100DF0004174C4EBC40002EB80008174C4EBC400F6
:100E0000114611F82000482806D10021C4EBC40087
:100E100002EB8000C17406E00121C4EBC4000E4A5D
:100E200002EB8000C1740021C4EBC4000A4A02EB4B
:100E300080000175C4EBC40002EB800041750749D6
:100E4000C4EBC40002EB80008161601CC4B2072CBB
:100E50008DDB08B070BD0000CC100020ED1800083C
:100E60002DE9F04F89B04FF0000B022000F0CEF9D1
:100E700000287CD0DA4617E0584890F85F0038B177
:100E80005146574800F02BFC564921F81A0007E05C
:100E9000CAF10301524800F022FC524921F81A001D
:100EA0000AF101001FFA80FABAF1040FE4DB4FF0F7
:100EB000040A0AE051464A4800F011FC494921F869
:100EC0001A000AF101001FFA80FABAF1080FF1DBEB
:100ED0004FF0000A36E04148523010F80A003F4C0B
:100EE000223404EB4A04009023883C4C123404EB77
:100EF0004A042288394CA41C04EB4A042188394C4A
:100F000034F81A0004F0C4FC3449323101EB8A0190
:100F100009680844344921F81A00084630F81A00D4
:100F2000A0F5FA70012101EB4A01304A22F81100C4
:100F30002D4830F81A0058441FFA80FB0AF10100CE
:100F40001FFA80FABAF1080FC5DB44F62060A0EB67
:100F50000B002649488407F053F82049B1F8600097
:100F6000FFF761FBCDE9040108211D4800E032E0F4
:100F700000F0B5FB0190FFF745FB06464FF06632E7
:100F80001B4BFFF750FA044600221A4BFFF74BFAAF
:100F9000CDE90201DDE90423FFF745FA0022164BF3
:100FA000CDE90601FFF7B1FA8046FFF7C1FB13490F
:100FB00008600A48D0F85B1010480068FFF7D4FBBF
:100FC00003D201200E49087002E000200C4908708D
:100FD000022000F05BF809B0BDE8F08FA4150020F6
:100FE000F80B0020AC0C0020BC0C0020E00A002014
:100FF00066660A40000008400C3E4F411400002085
:101000001800002000B58DB00121084601F0A6FBB4
:101010001B4800F055F81B4802901B480390002025
:1010200004905A20059000200690802007904000F0
:1010300008908000099020200A9000020B90002068
:101040000C9002A90E4800F000F9012202210C4880
:1010500000F0F2F80B208DF8040001208DF8050057
:1010600000208DF8060001208DF8070001A800F08F
:10107000C3FD0121024800F017F80DB000BD0000CB
:10108000080002404C240140F80B002000F0805181
:1010900011B10349086001E002494860704700004F
:1010A000040402400000024021B1026842F0010243
:1010B000026004E002684FF6FE731A400260704757
:1010C00001684FF6FE72114001600021016041602D
:1010D0008160C1604B49884208D14A490839496852
:1010E00041F00F01474A083A51608AE045491431FE
:1010F000884208D143490839496841F0F001414A22
:10110000083A51607DE03F492831884208D13D4985
:101110000839496841F470613A4A083A516070E010
:1011200038493C31884208D136490839496841F488
:101130007041344A083A516063E032495031884284
:1011400008D130490839496841F470212D4A083ADC
:10115000516056E02B496431884208D12949083949
:10116000496841F47001274A083A516049E025492D
:101170007831884208D123490839496841F07061C3
:10118000204A083A51603CE01F49884206D1011FBD
:10119000096841F00F01021F116032E01A49143151
:1011A000884208D11849091F096841F0F001164A20
:1011B000121F116025E014492831884208D11249D4
:1011C000091F096841F470610F4A121F116018E08D
:1011D0000D493C31884208D10B49091F096841F487
:1011E0007041094A121F11600BE0074950318842D3
:1011F00007D10549091F096841F47021024A121FED
:1012000011607047080002400804024001460020B7
:10121000002201F0805313B1054B1A6801E0054B21
:101220001A6802EA01030BB1012000E000207047B8
:1012300000040240000002401AB103680B4303603F
:1012400002E003688B430360704710B50022026818
:1012500047F6F0739A430C6A8B6823430C69234367
:101260004C6923438C692343CC6923434C6A234351
:101270008C6A23431A430260CB6843600B68836027
:101280004B68C36010BD000010B5012003F00CFBDB
:10129000012012490880124800681249D1F828112B
:1012A00088420BD110480078012803D10B200B494C
:1012B00048800EE00620094948800AE00A48007884
:1012C000012803D10C200549488002E0072003498A
:1012D0004880022000F00AF810BD00001A0000202B
:1012E000048121420080214223000020014908603E
:1012F0007047000014040140002123498279002A2C
:101300003AD00A46126803689A430B461A600A1DCF
:10131000126803689A430B1D1A60027911440A6827
:1013200003681A430A60184A0832126803689A432D
:10133000154B08331A601A1D126803689A43124B42
:101340000C331A604279102A0ED11A1F12680368F2
:101350001A430D4B08331A601A1D126803681A43AA
:10136000094B0C331A600DE00749427911440A68B1
:1013700003681A430A6005E0027911440A680368A9
:101380009A430A60704700000004014030B50446EB
:1013900004254FF4302000F06FF80546042D17D1D6
:1013A0000C48006940F002000A490861084644619F
:1013B000006940F0400008614FF4302000F05CF814
:1013C00005460448006941F6FD710840014908617D
:1013D000284630BD0020024004200B49C96801F0B6
:1013E000010109B101200EE00749C96801F00401BB
:1013F00009B1022007E00449C96801F0100109B1F0
:10140000032000E0042070470020024003480069E8
:1014100040F0800001490861704700000020024050
:1014200070B504460D460426F00200F025F8064685
:10143000042E11D10948006940F0010007490861F4
:101440002580F00200F018F806460448006941F6CD
:10145000FE71084001490861304670BD002002401D
:1014600002480349486003484860704723016745C4
:1014700000200240AB89EFCD00B502460423FFF700
:10148000ABFF034603E0FFF7A7FF0346521E012B05
:1014900001D1002AF7D102B90523184600BD00008A
:1014A00008B501210C2001F089F9FF20ADF80000FA
:1014B00003208DF8020000208DF8030069460548DE
:1014C00000F02CF80120ADF800006946024800F059
:1014D00025F808BD00080140000C014030B500228D
:1014E0008B071C0F0F2303FA04F20B4B8C1053F8DD
:1014F00024309343084C8D1044F8253023468C103B
:1015000053F824308C07240F00FA04F42343024CD0
:101510008D1044F8253030BD080001402DE9F04120
:10152000024600250026002000230024002791F811
:1015300003C00CF00F0591F803C00CF0100CBCF1C7
:10154000000F03D091F802C04CEA050591F800C0E5
:10155000BCF1000F31D0146800202BE04FF0010CDB
:101560000CFA00F3B1F800C00CEA03069E4220D149
:1015700083004FF00F0C0CFA03F7BC4305FA03FC91
:101580004CEA040491F803C0BCF1280F06D14FF0D7
:10159000010C0CFA00FCC2F814C00AE091F803C078
:1015A000BCF1480F05D14FF0010C0CFA00FCC2F859
:1015B00010C0401C0828D1D31460B1F800C0BCF1A1
:1015C000FF0F34DD546800202EE000F1080C4FF0CE
:1015D000010808FA0CF3B1F800C00CEA03069E42B9
:1015E00021D183004FF00F0C0CFA03F7BC4305FA2E
:1015F00003FC4CEA040491F803C0BCF1280F05D1A8
:1016000000F1080C08FA0CF8C2F8148091F803C035
:10161000BCF1480F07D100F1080C4FF0010808FA9F
:101620000CF8C2F81080401C0828CED35460BDE8E6
:10163000F0810000F0B50A460023002400210025B7
:1016400000F00046B6F1004F02D11D4EF16901E0F5
:101650001B4E7168C0F3034583B200F44016B6F523
:10166000401F08D121F07061154E766826F0706633
:10167000134F7E6012E000F48016B6F5801F06D18D
:10168000032606FA05F4A14341F0706106E0460D19
:10169000360103FA06F6B14341F0706122B1460DFE
:1016A000360103FA06F6314300F00046B6F1004F6A
:1016B00002D1034EF16101E0014E7160F0BD000006
:1016C000000001400246002093680B400BB101204E
:1016D00000E0002070474161704701617047F0B53C
:1016E00085B003460C46002107E0092505FB0145AE
:1016F00033F815502DF81150491C0A29F5DB00224A
:1017000018E0002111E03DF811604D1C3DF8155026
:10171000AE4209DD3DF811004D1C3DF815502DF885
:1017200011504D1C2DF81500491CC2F109058D42C0
:10173000E9DC521C092AE4DBBDF80A60BDF80C7034
:10174000F51905EBD576701005B0F0BD70B5002425
:101750002DE0C4EBC400174901EB8000007C00B908
:1017600023E0C4EBC400134901EB8005C4EBC400C3
:1017700001EB8000866995E80F00B047C4EBC40117
:101780000C4A02EB8101C97C884206D10121C4EBDD
:10179000C40002EB8000817406E00021C4EBC400A9
:1017A000044A02EB8000817400BF601CC4B2072CA5
:1017B000CFDB70BDCC10002010B54FF4807109480C
:1017C000FFF78BFF4FF400710648FFF786FF4FF4D9
:1017D00000710448FFF77FFF4FF480710148FFF765
:1017E0007AFF10BD000C014010B54FF4807107481E
:1017F000FFF773FF4FF400710448FFF76CFF4FF4DD
:1018000000710248FFF769FF10BD0000000C0140A5
:1018100010B54FF480710448FFF75FFF4FF48071FB
:101820000148FFF758FF10BD000C014002464FF081
:10183000FF3300210EE00C4830F81100904201D136
:101840000B4609E0084830F81100904200DD03E043
:10185000481C81B22B29EEDB00BF002B01DA0020EF
:1018600070470120FCE700007C0600200146CA17F3
:1018700001EB92729210A1EB820292B9642091FB6B
:10188000F0F200FB121050B94FF4C87091FBF0F267
:1018900000FB121008B9012070470020FCE701206E
:1018A000FAE70020F8E7000000B59DB003F08EF8DD
:1018B00070220B4901A8FEF735FC01A8FFF752FA88
:1018C0000121084600F07AFF01210648FFF7B2FE29
:1018D0000548406820F02000034948601DB000BD65
:1018E000208D000800023000002004E01FB5BDF884
:1018F00008100198FFF7E6FE04B010BD1CB511A159
:1019000003C9CDE90001082001F0FEFB052269466C
:10191000302000F02BF905226946102000F090F8E5
:10192000002406E01DF80400A52800D003E0601C98
:10193000C4B2052CF6DB00BF052C01D001201CBD74
:101940000020FCE7A5A5A5A5A500000000B587B06F
:1019500001211C2000F032FF4FF48050ADF8180038
:1019600010208DF81B0003208DF81A0006A92948C5
:10197000FFF7D4FD4FF48070ADF8180006A9264893
:10198000FFF7CCFD4FF40070ADF8180028208DF85B
:101990001B0006A92048FFF7C1FD4FF440711E4807
:1019A000FFF799FE4FF480511A48FFF794FE01F0BB
:1019B00037FB0021194801F0BBFB0020ADF8040003
:1019C0004FF48270ADF806000020ADF80800ADF8C5
:1019D0000A00ADF80C004FF40070ADF80E001820AE
:1019E000ADF810000020ADF812000720ADF814008B
:1019F00001A90A4801F0B6FB0121084801F098FB53
:101A000000200749086001200649C1F8B00107B06D
:101A100000BD0000000C01400008014000380040FB
:101A2000A00121420080214210B500200349086036
:101A30000C21202000F0B8F810BD0000A0012142C8
:101A40002DE9F04107460D46164600200A49086078
:101A5000384601F02FFB8046002405E0FF2001F00E
:101A600029FB2855601CC4B2B442F7DB01200249AF
:101A700008604046BDE8F081B081214270B504465F
:101A8000002007490860204601F014FBFF2001F008
:101A900011FB054601200349C1F8B001284670BD7D
:101AA000B08121420080214210B504460020144933
:101AB000086005221349302000F058F80522124929
:101AC0002A2000F053F80121212000F06DF80121B7
:101AD000222000F069F81A21242000F065F828215E
:101AE000252000F061F82146262000F05DF80E2147
:101AF000202000F059F801200449C1F8A00110BDD0
:101B0000A0012142908D0008958D0008000021421F
:101B100070B50546102001F0F7FA00201149086061
:101B200020222946A02000F021F801200E49C1F80A
:101B3000A0010720FFF7A2FF04462146272000F05E
:101B400033F804F0100028B1FF21E12000F02CF858
:101B5000102070BD04F0200008B12020F9E7FF201C
:101B6000F7E70000A0012142000021422DE9F041E9
:101B700007460C46154600200A490860384601F021
:101B800099FA8046002605E014F8010B01F092FA5C
:101B9000701CC6B2AE42F7DB012002490860404625
:101BA000BDE8F081B081214270B505460C460020A9
:101BB00007490860284601F07DFA0646204601F0F4
:101BC00079FA01200349C1F8B001304670BD000028
:101BD000B08121420080214208B51E208DF800000E
:101BE00000208DF801008DF8020001208DF803001F
:101BF000684600F001F808BD70B5002100230F22EF
:101C0000C47804B3154C246804F4E064C4F5E064BB
:101C1000210AC1F10403CA40447804FA03F184782C
:101C20001440214309010E4C0678A155047804F0B4
:101C30001F050124AC4005786D11AD0005F1E025CC
:101C4000C5F8004109E0047804F01F050124AC4008
:101C5000044D0678761145F8264070BD0CED00E085
:101C600000E400E080E100E002490143024A116023
:101C7000704700000000FA050CED00E070B500248C
:101C800018E004F1B000002100F001FB002108463B
:101C900000F0FDFA0021102000F0F9FA002505E01F
:101CA0000121002000F0F3FA681CC5B2802DF7DB9B
:101CB000601CC4B2082CE4DB70BD000000200CE006
:101CC000002106E00022064B03EBC0035A544A1CD5
:101CD000D1B20829F6DB421CD0B28028F0DB704775
:101CE00099110020F0B5144600267F2801DC3F2919
:101CF00000DDF0BD0B46CF1701EB5777FF10C7F1A2
:101D00000707FAB2CF1701EB5777FF10A1EBC70710
:101D1000FDB2C5F107070123BB40DEB24CB10A4B4F
:101D200003EBC0039B5C3343074F07EBC007BB5477
:101D300008E0054B03EBC0039B5CB343024F07EB8A
:101D4000C007BB5400BFD4E7991100202DE9F04F24
:101D500006460C4617469846A346002530E017F87D
:101D600005904FF0000A25E009F0800028B12146D7
:101D700030460A9AFFF7B6FF09E00A9808B9012031
:101D800000E00020024621463046FFF7ABFF4FF649
:101D9000FF7000EA4909601CC4B2A4EB0B0109986A
:101DA000814203D15C46701CC6B206E00AF1010014
:101DB0001FFA80FABAF1080FD6DB00BF681C85B2A3
:101DC000099908FB01F0C11700EB5171B5EBE10F68
:101DD000C5DBBDE8F08F2DE9F04706460F4690467B
:101DE0009946DDF820A034460CE03D4606E0524618
:101DF00029462046FFF776FF681CC5B24D45F6DD43
:101E0000601CC4B24445F0DDBDE8F08708B501218F
:101E1000092000F0D3FC01210220FFF70BFC4FF456
:101E20004070ADF8000010208DF8030003208DF8FD
:101E3000020069463B48FFF771FB4FF44071394897
:101E4000FFF74BFC0A2002F02FFD0021AE2000F02E
:101E50001EFA0021084600F01AFA0021102000F0B6
:101E600016FA0021402000F012FA0021B02000F004
:101E70000EFA0021812000F00AFA0021FF2000F074
:101E800006FA0021A12000F002FA0021A62000F0AD
:101E9000FEF90021A82000F0FAF900213F2000F00F
:101EA000F6F90021C02000F0F2F90021D32000F063
:101EB000EEF90021084600F0EAF90021D52000F0F3
:101EC000E6F90021802000F0E2F90021D82000F09E
:101ED000DEF90021052000F0DAF90021D92000F018
:101EE000D6F90021F12000F0D2F90021DA2000F02B
:101EF000CEF90021122000F0CAF90021DB2000F009
:101F0000C6F90021302000F0C2F900218D2000F038
:101F1000BEF90021142000F0BAF90021AF2000F032
:101F2000B6F908BD000C014070B500241BE004F1B7
:101F3000B000002100F0ABF90021084600F0A7F93D
:101F40000021102000F0A3F9002508E0074901EB6B
:101F5000C501085D012100F09AF9681CC5B2802D09
:101F6000F4DB601CC4B2082CE1DB70BD99110020C9
:101F70002DE9F84F80460F4616461C46BA462046C5
:101F8000E31704EB5373DB1021464FEAE47C04EBC8
:101F90005C7C4FEAEC0CA4EBCC0CBCF1000F02D043
:101FA0004FF0010C01E04FF0000C6344224604EBBB
:101FB000D27C4FEA6C0C03FB0CF303F0FF0BA6F191
:101FC0002000C6B200254EE00C2C07D106EB4600DF
:101FD000274901EB8000405D009013E0102C05D1F3
:101FE000244800EB0610405D00900BE0182C07D150
:101FF00006EBC600204901EB8000405D009001E047
:10200000BDE8F88F4FF0000927E0009800F080004D
:1020100028B1394640460A9AFFF764FE09E00A985B
:1020200008B9012000E00020024639464046FFF78B
:1020300059FE00984006000E0090781CC7B2A7EB2E
:102040000A00A04205D1574608F1010000F0FF0840
:1020500006E009F1010000F0FF09B9F1080FD4DB37
:1020600000BF681CC5B25D45AEDB00BFC8E700001D
:102070009A8D00080E920008FE9700082DE9FE4F89
:1020800006460D4617461C46DDF830A00195204651
:10209000E21704EB5272D2102146E31704EB53739C
:1020A000DB10A4EBC3030BB1012300E000231A44AF
:1020B0006243D2B200920C2C05D107EB47002549B0
:1020C00001EBC0090AE0102C03D1234800EB4719AB
:1020D00004E007EBC700214901EBC0094FF00008FD
:1020E00032E019F808B00020029025E00BF08000E3
:1020F00028B1E9B2F0B25246FFF7F4FD0AE0BAF1B6
:10210000000F01D1012300E000231A46E9B2F0B22A
:10211000FFF7E8FD4FEA4B604FEA106B681C85B291
:102120000198281AA04203D1019D701C86B206E0D6
:102130000298401CC0B2029002980828D6DB00BF6B
:1021400008F1010000F0FF0800988045C9DBBDE8F8
:10215000FE8F00005AA5000872A50008B2B300085F
:102160002DE9F8430546884616461F46DDF82090BF
:1021700000240BE0CDF80090325D05EB041188B22D
:1021800010234146FFF77AFF601CC4B2BC42F1DB6A
:10219000BDE8F8832DE9FF4F82B0074691461E4601
:1021A000DDE90F5A00200190002438E0301B401E6A
:1021B000C1B20A2005F08AFDB9FBF0F00A21B0FB9C
:1021C000F1F201FB12080198B0B9701EA04213DDB4
:1021D000B8F1000F0ED1AB4605EBDB71491001FBE6
:1021E0000471C8B22B462022CDF800A00399FFF756
:1021F000BFFE12E001200190AB4605EBDB714910F8
:1022000001FB0471C8B208F13001CAB22B46CDF807
:1022100000A00399FFF7ACFE00BF601CC4B2B4423B
:10222000C4DB06B0BDE8F08F2DE9F84306460F4643
:1022300015461C46DDF8208021E004EBD4714910DE
:10224000C1F18001B14202DA00263819C7B2C4F1E7
:102250004000B84204DA002006460746FFF70EFDAC
:10226000CDF800802A78234639463046FFF780FEB5
:10227000204604EBD07106EB6101CEB26D1C2878CC
:102280007E2802DC28782028D7DABDE8F88370B5EC
:1022900004460D461DB1E0B201F02AFE02E0E0B2B4
:1022A00001F010FE70BD000010B5F7484088801F97
:1022B000072856D2DFE800F00F041A3745545300C0
:1022C000F248007800EB4000F14901EB80004078D3
:1022D000EE49087045E0ED48007800EB4000EC491D
:1022E00001EB80008078E94908703AE0E74804781B
:1022F000007800EB4000E64901EB8000C078E3493C
:1023000008702046FFF792FA60B1E0480078FFF7C6
:102310008DFA38B1DF48007808B9012000E00020CC
:10232000DC4908701DE0D948007800EB4000D8492E
:1023300001EB80000079D54908700020D54908706C
:102340000FE0D248007800EB4000D14901EB80005B
:102350004079CE4908700020CE49087001E000E0C5
:1023600000BF00BFC9480078B8B9CB480078A0B119
:10237000C9480078412807D0C74800782D2803D0E5
:10238000C5480078C5490880C3480078412802D173
:102390003220C2490880FFF791FCBC48007860B148
:1023A000BD48007848B9B8484088082805D1BB48DE
:1023B0000078B6490870FFF781FCB448007801281E
:1023C00019DBB2480078092815DCB34800780128E9
:1023D00001DA012000E00020AF490978092901DD78
:1023E000012100E00021084328B144236A22092189
:1023F000082003F0DBF9A54800780A2815DBA3487C
:102400000078112811DCA44800780A2801DA01209C
:1024100000E00020A0490978112901DD012100E038
:102420000021084308B104F043F8984800781228C6
:1024300015DB96480078192811DC97480078122897
:1024400001DA012000E0002093490978192901DD13
:10245000012100E00021084308B104F041F88B4855
:1024600000781A2815DB894800781D2811DC8A4875
:1024700000781A2801DA012000E000208649097856
:102480001D2901DD012100E00021084308B1FFF70B
:1024900015FC7E4800781E2815DB7C480078212832
:1024A00011DC7D4800781E2801DA012000E00020C0
:1024B00079490978212901DD012100E00021084343
:1024C00008B1FFF7FBFB71480078222815DB6F4845
:1024D0000078242811DC70480078222801DA0120D5
:1024E00000E000206C490978242901DD012100E089
:1024F0000021084308B1FFF7E1FB64480078252874
:1025000015DB624800782C2811DC63480078252808
:1025100001DA012000E000205F4909782C2901DD63
:10252000012100E00021084308B103F0CDFF574826
:1025300000782D2805D1584800782D2801D0FFF7C4
:10254000BDFB524800782E2819DB5048007833280C
:1025500015DC514800782E2801DA012000E0002027
:102560004D490978332901DD012100E000210843AC
:1025700028B1092308223521342003F017F94348F4
:102580000078342815DB41480078362811DC4248B1
:102590000078342801DA012000E000203E49097863
:1025A000362901DD012100E00021084308B1FFF7D1
:1025B00085FB36480078372815DB34480078392801
:1025C00011DC35480078372801DA012000E00020CE
:1025D00031490978392901DD012100E00021084352
:1025E00008B1FFF76BFB294800783A2815DB27482C
:1025F00000783C2811DC284800783A2801DA0120CC
:1026000000E00020244909783C2901DD012100E097
:102610000021084308B1FFF751FB1C4800783D2812
:1026200015DB1A4800783F2811DC1B4800783D284C
:1026300001DA012000E00020174909783F2901DD77
:10264000012100E00021084308B1FFF737FB0F48E4
:102650000078412805D110480078412801D0FFF7C3
:102660002DFB0A4800780C49097888420AD00749AE
:10267000097801EB4101064A02EB81018868804735
:10268000FFF752FC10BD00001A00002026000020B9
:102690003803002023000020270000202400002011
:1026A00008B50121102000F089F84FF40050ADF872
:1026B000000003208DF8020010208DF80300694609
:1026C0000148FEF72BFF08BD001001400EB50121A7
:1026D000042000F053F84FF4FA70ADF804004720DE
:1026E000ADF800000020ADF80600ADF80200694624
:1026F0000E4801F007FA012211460C4801F0A7F933
:10270000FFF7CEFFFFF768FA094890F86E0001283E
:1027100004D10121054801F06EF903E000210348CE
:1027200001F069F90020034908600EBD000800406F
:10273000A4150020B401224201490862704700003C
:1027400000000E4201460020034A506820F4404039
:1027500008435060704700000010024029B1064A4B
:1027600052690243044B5A6104E0034A52698243AE
:10277000014B5A61704700000010024029B1064A1F
:10278000D2690243044BDA6104E0034AD26982430E
:10279000014BDA61704700000010024029B1064A7F
:1027A00012690243044B1A6104E0034A126982432E
:1027B000014B1A61704700000010024029B1064A1F
:1027C00092690243044B9A6104E0034A926982438E
:1027D000014B9A61704700000010024029B1064A7F
:1027E000D2680243044BDA6004E0034AD2688243B1
:1027F000014BDA6070470000001002400149086098
:10280000704700004004424230B5002100220024FD
:1028100000232D4D6D6805F00C0121B1042905D070
:10282000082923D105E0294D056022E0274D0560E8
:102830001FE0254D6D6805F47012234D6D6805F499
:102840008034022505EB92421CB9214D55430560A9
:102850000BE01D4D6D6805F400351DB11C4D554351
:10286000056002E0194D5543056002E0174D056013
:1028700000BF00BF144D6D6805F0F0010909154D4A
:102880006B5C0568DD4045600F4D6D6805F4E061E7
:10289000090A104D6B5C4568DD4085600A4D6D6826
:1028A00005F46051C90A0B4D6B5C4568DD40C5609D
:1028B000054D6D6805F44041890B074D6B5CC5689B
:1028C000B5FBF3F5056130BD0010024000127A003F
:1028D00000093D001C0B00202C0B002010B5014608
:1028E0000022002300204A11012A02D1094C23684A
:1028F00006E0022A02D1074C236A01E0054C636A14
:1029000001F01F02012494401C400CB1012000E0A2
:10291000002010BD0010024000210B4A11700A4A2D
:10292000203A82F82010012802D0042808D103E0C0
:102930000121054A117004E00521034A117000E0ED
:1029400000BF00BF7047000020100240014908602E
:10295000704700003C0442420249096A0143014AAF
:102960001162704700100240024909888143014A00
:1029700011807047042800400348008840F0100090
:10298000014908807047000004280040034800887F
:102990004FF6EF7108400149088070470428004055
:1029A00070B500260024002500F07CF80646394862
:1029B000B6FBF0F438480088A0423CD036490C8081
:1029C00040F2B27510E02846FEF750FF40B1B4F572
:1029D000B77F02D3A4F5B77404E0681C85B206E0A3
:1029E000A4F26D14681C85B2B4F5B67FEBD800BFB5
:1029F0002A488580002516E028498888FEF736FF9A
:102A000030B1012D04D11D2C01D31D3C09E00CE097
:102A10002348405DA04203D82148405D241A00E0CD
:102A200003E0681C85B21C2CE6D200BF681C1B4961
:102A30008871601CC8711748B6FBF0F100FB116487
:102A40001649CC704FF46160B4FBF0F008704FF49D
:102A50006160B4FBF0F100FB11403C21B0FBF1F0F0
:102A60000E4948704FF46160B4FBF0F100FB114077
:102A70003C21B0FBF1F201FB1200084988700B46C3
:102A8000DA799979988800F029F8044908720020C9
:102A900070BD000080510100D20A00209A1500206C
:102AA00006B40008002103480188001F008841EA9D
:102AB000004070471C28004001460020064A12884A
:102AC0000A40D0B2044A121F12880A4012B108B15B
:102AD000012000E00020704704280040F0B50346C4
:102AE0000C461546642093FBF0F0C6B2642093FBBD
:102AF000F0F700FB1730C1B2132E02DD01F16400C4
:102B0000C1B20846CF1701EB977701EBA707BAB21E
:102B1000072092FBF0F700FB172082B25719601EC6
:102B2000DFF82CC01CF80000384482B2CF1701EB4C
:102B30009777BF10A1EB87071FB9032C01DA501E4E
:102B400082B2072092FBF0F700FB1720C0B2F0BD65
:102B5000FAB300080EB50120FFF7AEFF08B1FFF78A
:102B60001FFF0220FFF7A8FFA0B10220FFF7FCFE25
:102B7000FFF716FF0A48807809494978084A127811
:102B8000CDE9002102900648C3798279818805A0A9
:102B900001F0C4F90520FFF7E7FE00F015F90EBDBE
:102BA0009A150020416C61726D2054696D653A255B
:102BB000642D25642D25642025643A25643A256416
:102BC0000A00000029B1064A12880243044B1A8009
:102BD00004E0034A12888243014B1A8070470000C8
:102BE000002800401CB5002401214FF0C050FFF721
:102BF000C5FD0120FFF7A0FD0420FEF797F845F280
:102C00005001884240D0FEF789F80120FFF784FE8A
:102C100004E0601CC4B20A2001F046FE4120FFF728
:102C20005DFE08B9FA2CF4DBFA2C01DB01201CBD97
:102C30004FF48070FFF790FE0120FFF787FE00F051
:102C4000C3F800F0CBF801210846FFF7BBFF00F006
:102C5000BBF8FFF791FE47F6FF7000F0A5F800F013
:102C6000B3F8372032210B231422CDE900100621BE
:102C700040F2E47000F026F8FFF788FE45F25001BC
:102C80000420FEF761F807E000F0A8F801210846EB
:102C9000FFF798FF00F098F800F004F8FFF780FEC7
:102CA0000020C4E708B503208DF8000000208DF84F
:102CB00001008DF8020001208DF803006846FEF740
:102CC0009BFF08BD2DE9F05F06460F4690469946EA
:102CD000DDE90AAB002440F2B270864203DB40F625
:102CE0003300864202DD0120BDE8F09F40F2B2755C
:102CF0000AE02846FEF7BAFD10B12048044401E07E
:102D00001F480444681C85B2B542F2DB781EC7B286
:102D1000002510E01B48405D40F2A321484304EB2E
:102D2000C0143046FEF7A2FD18B1012D01D116489E
:102D30000444681C85B2BD42ECDBA8F1010040F2FE
:102D4000A321484304EBC014C9EB4910C0EB092090
:102D500004EB0014CAEB0A1004EB80045C4401216C
:102D60004FF0C050FFF70AFD0120FFF7E5FC2046B9
:102D700000F00CF800F028F80020B5E70085E2012B
:102D80008033E10106B400088051010000B502461D
:102D9000FFF7F2FD100C03490880091D0A80FFF7B8
:102DA000F5FD00BD1828004000B50246FFF7E4FD20
:102DB000C2F3034003490880091D0A80FFF7E6FDBE
:102DC00000BD00000828004000BF0348008800F054
:102DD00020000028F9D070470428004007480088E8
:102DE0004FF6F77108400549088000BF0348008886
:102DF00000F008000028F9D07047000004280040C7
:102E000010B5FEF7A3FC0024E2E0C4EBC400724955
:102E100001EB8000007D30B1012822D0032848D08A
:102E200004287CD18EE0C4EBC4006B4901EB800028
:102E3000807C01280DD10121C4EBC400664A02EB5D
:102E4000800001750021C4EBC40002EB80004175D5
:102E500006E00021C4EBC4005F4A02EB800041752C
:102E6000B3E0C4EBC4005C4901EB8000807C012826
:102E700012D10321C4EBC400574A02EB8000017554
:102E8000C4EBC40002EB800041750021C4EBC40018
:102E900002EB800041740BE00021C4EBC4004E4AF9
:102EA00002EB80000175C4EBC40002EB80004175A9
:102EB0008BE0C4EBC400484901EB8000807C012812
:102EC0000DD00021C4EBC400434A02EB8000017521
:102ED0000221C4EBC40002EB8000417531E0C4EB79
:102EE000C4003D4901EB8000807C012822D1C4EB65
:102EF000C40001EB8000407C401CC1B2C4EBC400A4
:102F0000354A02EB800041741E2913DB0421C4EB17
:102F1000C40002EB80000175C4EBC40000E053E084
:102F200002EB800041750021C4EBC40002EB80007D
:102F3000417406E00021C4EBC400274A02EB800084
:102F4000417542E0C4EBC400234901EB8000807C62
:102F500001280DD00021C4EBC4001F4A02EB800001
:102F600001750221C4EBC40002EB800041752AE028
:102F7000C4EBC400184901EB8000807C01281BD100
:102F8000C4EBC40001EB8000407C401CC1B2C4EB28
:102F9000C400114A02EB800041741E290CDB04219D
:102FA000C4EBC40002EB800041750021C4EBC400F7
:102FB00002EB8000417406E00021C4EBC400064A25
:102FC00002EB8000417500E000BF00BF601CC4B28E
:102FD000072CFFF61AAF10BDCC10002010B50D481D
:102FE000006882B20C490D4800F0DAF80A480088FF
:102FF00040F2212188420BD008460749088004F09E
:1030000071FE0448006882B20349044800F0DCF80D
:1030100010BD0000DC0A0020A415002004FC0008FC
:1030200000B587B001210820FFF7C8FB0121880304
:10303000FFF7A4FB4FF46040ADF8180018208DF89E
:103040001B0003208DF81A0006A91848FEF766FA3F
:103050004FF460411548FEF740FB0020ADF8040036
:103060004FF48270ADF806000020ADF80800022091
:10307000ADF80A000120ADF80C004002ADF80E00DA
:103080003820ADF810000020ADF812000720ADF890
:10309000140001A9064800F065F80121044800F079
:1030A00047F8FF2000F006F807B000BD000C014013
:1030B0000038004070B50546002405E0601CC4B22D
:1030C000C82C01DD002070BD02210E4800F03CF844
:1030D0000028F3D029460B4800F042F8002405E010
:1030E000601CC4B2C82C01DD0020ECE701210548BA
:1030F00000F02AF80028F3D0024800F02EF8C0B201
:10310000E1E700000038004010B504460748008899
:103110004FF6C771084005490880084600882043DB
:1031200008800121014800F003F810BD003800407C
:1031300021B1028842F04002028004E002884FF68A
:10314000BF731A40028070470246002013890B406B
:103150000BB1012000E000207047014688897047CC
:103160008181704710B50022028802F441520B8819
:103170004C8823438C882343CC8823430C892343E6
:103180004C8923438C892343CC8923431A430280EF
:10319000838B4FF2FF74234083830B8A038210BD1D
:1031A00030B503460C461546002207E0184600F0ED
:1031B00008F824F812009B1C501C82B2AA42F5DBCE
:1031C00030BD0146088870472DE9F05F80468A4689
:1031D0001746B8F1006F02D33348804501D3BDE8EC
:1031E000F09FFEF73DF9A8F1006B4FEA9B25CBF36A
:1031F0004809C9F50074A74200DC3C464DE04FF099
:10320000006101EB85208A142849FFF7C9FF0026D9
:103210000BE009EB0600254931F810004FF6FF716D
:10322000884200D003E0701C86B2A642F1DB00BFEA
:10323000A6421BDA4FF0006101EB8520FEF7A6F8ED
:10324000002608E03AF8160006EB0901174A22F8B2
:103250001100701C86B2A642F4DB4FF0006101EB56
:1032600085208A14114900F023F804E022465146D3
:10327000404600F01DF8A74200D10FE06D1C4FF052
:1032800000090AEB440AA044381B87B2B7F5007F57
:1032900002DD4FF4007400E03C46B0E700BFFEF7EB
:1032A000B5F800BF9BE7000000000108CC0C00202F
:1032B0002DE9F04105460E461746002407E036F892
:1032C00014102846FEF7ACF8AD1C601C84B2BC425A
:1032D000F5DBBDE8F08110B500F002F810BD00008C
:1032E0000CB50020019000903348006840F4803015
:1032F0003149086000BF3048006800F40030009099
:103300000198401C0190009818B90198B0F5A06F81
:10331000F1D12948006800F4003010B1012000907C
:1033200001E0002000900098012843D12348006864
:1033300040F01000214908600846006820F00300B2
:1033400008600846006840F0020008601A484068BB
:10335000194948600846406848600846406840F49B
:10336000806048600846406820F47C104860084649
:10337000406840F4E81048600846006840F08070FB
:10338000086000BF0C48006800F000700028F9D009
:103390000948406820F00300074948600846406833
:1033A00040F00200486000BF0348406800F00C0095
:1033B0000828F9D10CBD0000001002400020024096
:1033C000042808D14FF0E021096941F004014FF0D1
:1033D000E022116107E04FF0E021096921F00401CA
:1033E0004FF0E0221161704710B51348006840F0BB
:1033F00001001149086008464068104908400E491C
:103400004860084600680E4908400B4908600846B5
:10341000006820F4802008600846406820F4FE0020
:1034200048604FF41F008860FFF755FF4FF00060C1
:103430000449086010BD0000001002400000FFF8C1
:10344000FFFFF6FE08ED00E030B587B005460C46FC
:1034500001210846FFF792F9ADF81450ADF810407D
:103460000020ADF81600ADF8120004A94FF080401E
:1034700000F048FB6020ADF800000120ADF802002C
:103480000920ADF806000220ADF8080069464007A3
:1034900000F0E6FA0121880700F0ADFA0121880763
:1034A00000F0B5FA07B030BD0EB50121FE4800F0BE
:1034B000BDFA00287ED0FFF7A3FC002002901BE29B
:1034C0009DF80800C0EBC000F84901EB8000407D8A
:1034D00001909DF8080006286DDA9DF80400032885
:1034E00069D1F34800780028FAD19DF8080008B99E
:1034F000012000E000209DF80810012900D100E023
:103500000021084338B1EB4890F85F0008B1002073
:1035100000E0032000909DF80800022801D101205E
:1035200000E000209DF80810032901D1012100E0EE
:103530000021084338B1DF4890F85F0008B101204E
:1035400000E0012000909DF80800042801D101202E
:1035500000E000209DF80810052901D1012100E0BC
:103560000021084338B1D34890F85F0008B1032028
:1035700000E000200090CF4832309DF8001000EBB2
:1035800081000068CB4991F85A10C1F596718842C4
:103590000BDDC84890F85A00C0F59671C548323026
:1035A0009DF8002000EB82000160C24832309DF897
:1035B000001001E0B4E13BE000EB81000168BD4890
:1035C00090F85A00A0F5967081420BDAB94890F84D
:1035D0005A00A0F59670B74932319DF8002001EBF2
:1035E000820108609DF8080000EBD0714910A0EB43
:1035F000410161B9AF4932319DF8002001EB8200F1
:103600000168AC4A92F85A20891A01600BE0A94976
:1036100032319DF8002001EB82000168A54A92F842
:103620005A20114401609DF80800401CA24908700E
:103630009DF8080006287DDA9DF80400042879D159
:103640009B4800780028FAD11D219DF80800C0EBA6
:10365000C000964A02EB800041749DF8080008B94A
:10366000012000E000209DF80810012900D100E0B1
:103670000021084338B18F4890F85F0008B100205E
:1036800000E0032000909DF80800022801D10120ED
:1036900000E000209DF80810032901D1012100E07D
:1036A0000021084338B1834890F85F0008B1012039
:1036B00000E0012000909DF80800042801D10120BD
:1036C00000E000209DF80810052901D1012100E04B
:1036D0000021084338B1774890F85F0008B1032013
:1036E00000E000200090734832309DF8001000EB9D
:1036F000810000686F4991F85A10C1F596718842AF
:103700000BDD6C4890F85A00C0F59671694832306C
:103710009DF8002000EB82000160664832309DF881
:10372000001000EB81000168624890F85A00A0F593
:10373000967000E033E081420BDA5E4890F85A0060
:10374000A0F596705B4932319DF8002001EB8201B3
:1037500008609DF8080000EBD0714910A0EB410112
:1037600061B9544932319DF8002001EB82000168B3
:10377000504A92F85A20891A01600BE04D493231C3
:103780009DF8002001EB820001684A4A92F85A2015
:10379000114401609DF80800401C474908709DF8DD
:1037A0000800042814D19DF80400042810D11D211C
:1037B0009DF80800C0EBC0003C4A02EB8000417459
:1037C0003B48007820B101203C4908800C2048800B
:1037D0009DF80800052814D19DF80400042810D194
:1037E0001D219DF80800C0EBC000304A02EB8000AC
:1037F00041742F48007820B10120304908800B2007
:1038000048809DF8080058B99DF80400032807D1A6
:103810002748007820B10120284908800A204880E4
:103820009DF8080002280BD19DF80400032807D159
:103830001F48007820B101202049088008204880D6
:103840009DF8080003280BD19DF80400032807D138
:103850001748007820B101201849088009204880C5
:103860009DF8080004280BD19DF80400032807D117
:103870000F48007820B10120104908800C204880B2
:103880009DF8080005280BD19DF80400032807D1F6
:103890000748007820B10120084908800B204880A3
:1038A0009DF8080006280BE000040040CC10002022
:1038B00026000020A4150020220000201A0000206D
:1038C00008D19DF80400032804D10120154908807F
:1038D000082048809DF80800062808D19DF80400BB
:1038E000042804D101200F4908800A2048809DF84F
:1038F0000800401CC0B202909DF808000728FFF69F
:10390000DFAD09480068401C0749086007480068A7
:10391000401C064908600121054800F069F800BF15
:103920000EBD00001A000020D40A0020D80A002092
:10393000000400407FB505460C4601210220FEF739
:103940001DFFADF80850ADF804400020ADF80600AA
:10395000ADF80A00012211460C4800F078F801A9E0
:103960000A4800F0CFF81D208DF8000002208DF8E5
:1039700001008DF8020001208DF803006846FEF773
:103980003BF90121014800F036F87FBD00040040FA
:1039900010B50121124800F049F8F8B10121104892
:1039A00000F026F80F481049098830F81100401E31
:1039B0000B492C3108800D48006808B9012000E04F
:1039C00000200A49086008480088401C0649088011
:1039D00008460088122801DB0020088010BD000086
:1039E00000080040E00A0020040B0020B40122423D
:1039F000CA430282704721B1028842F0010202806C
:103A000004E002884FF6FE731A400280704731B11D
:103A1000B0F8442042F40042A0F8442005E0B0F899
:103A20004420C2F30E02A0F84420704730B502468D
:103A3000002000230024158A05EA0103958905EA80
:103A4000010413B10CB1012000E0002030BD1AB117
:103A500083890B43838102E083898B438381704791
:103A600070B5002400220023058C4FF6EF76354018
:103A70000584028C8388048B48F6FF752C404FF632
:103A8000FF452C400D884FF6FF7606EA05252C43AE
:103A90004FF6DF752A400D8906EA05152A434D8841
:103AA00006EA05152A43154DA84202D0144DA84236
:103AB0001DD14FF67F752A404D894FF6FF7606EAF5
:103AC00005152A434FF6BF752A408D8806EA05156D
:103AD0002A434FF6FF352B404FF2FF752B408D895F
:103AE00006EA85052B43CD8906EA85052B438380AD
:103AF0000483CD880587028470BD0000002C01403E
:103B000000340140002202881D4B98420ED01D4B0C
:103B100098420BD0B0F1804F08D01B4B984205D093
:103B20001A4B984202D01A4B984204D14FF68F7329
:103B30001A404B881A43174B984207D0164B9842AD
:103B400004D04FF6FF431A40CB881A4302808B887B
:103B500083850B8803850A4B98420BD0094B98420A
:103B600008D00E4B984205D00D4B984202D00D4B19
:103B7000984201D10B7A03860123838270470000AB
:103B8000002C0140003401400004004000080040C7
:103B9000000C0040001000400014004000400140B4
:103BA000004401400048014010B540F225511D4835
:103BB00000F098F810B31B4800F050F9C4B21A484E
:103BC000008800F40040C8B91748008800F480401D
:103BD00060B10A2C03D000201349088020E012486D
:103BE000008840F400401049088019E00D2C06D1EF
:103BF0000D48008840F480400B49088010E00A48D6
:103C00000088C0F30D0009490C5407480088401C87
:103C10000549088008460088C72801DD0020088083
:103C200010BD00000038014010000020300B0020C3
:103C300021B1828942F40052828104E082894DF6EA
:103C4000FF731A408281704710B5044620488442B1
:103C500009D101218803FEF7C1FD00214FF4804006
:103C6000FEF7BCFD32E01B48844209D10121480423
:103C7000FEF794FD00214FF40030FEF78FFD25E0A4
:103C80001548844209D101218804FEF787FD0021EF
:103C90004FF48020FEF782FD18E01048844209D1DD
:103CA0000121C804FEF77AFD00214FF40020FEF741
:103CB00075FD0BE00A48844208D101210805FEF792
:103CC0006DFD00214FF48010FEF768FD10BD00006F
:103CD000003801400044004000480040004C0040D3
:103CE0000050004070B5024600240023002500204B
:103CF00040F66A16B14200D100BFC1F3421501F08F
:103D00001F03012606FA03F3012D02D196893340E1
:103D100006E0022D02D1168A334001E0968A334034
:103D20000C12012606FA04F41688344013B10CB1C3
:103D3000012000E0002070BDF0B5034600240026FD
:103D40000025002040F66A17B94200D100BF18468E
:103D5000C1F3421401F01F06012707FA06F5012CF2
:103D600001D10C3004E0022C01D1103000E01430FD
:103D70001AB107682F43076002E00768AF43076086
:103D8000F0BD00002DE9F04786B005460E46002440
:103D9000A24600BFA1460027B08900B100BF2F4650
:103DA0002C8A4CF6FF700440F08804432C82AC89C6
:103DB0004EF6F3100440B0883189084371890843F6
:103DC0000443AC81AC8A4FF6FF400440B089044301
:103DD000AC8201A8FEF718FD1F48874202D1DDF82A
:103DE00010A001E0DDF80CA0A88900F4004040B16B
:103DF0000AEBCA0000EB0A1031684900B0FBF1F889
:103E000007E00AEBCA0000EB0A1031688900B0FB3A
:103E1000F1F86420B8FBF0F004012009642101FBF3
:103E20001089A88900F4004040B1322000EBC9009D
:103E3000B0FBF1F000F00700044308E0322000EB93
:103E400009106421B0FBF1F000F00F0004432C8155
:103E500006B0BDE8F08700000038014001468888C0
:103E6000C0F30800704700002DE9F04105462C46DC
:103E70004FF480711248FDF72EFC00261CE0274607
:103E800007F08007802F04D1B9000D48FDF725FC0D
:103E900004E04FF400710A48FDF71DFC6006040EB3
:103EA0004FF480710648FDF718FC4FF48071044808
:103EB000FDF711FC701CC6B2082EE0DBBDE8F081F6
:103EC000000C014010B50446FDF776FC7820FFF7A2
:103ED000CBFFFDF79DFC0020FFF7C6FFFDF798FC28
:103EE0002046FFF7C1FFFDF793FCFDF77DFC10BDF9
:103EF00010B50446FDF760FC7820FFF7B5FFFDF72D
:103F000087FC4020FFF7B0FFFDF782FC2046FFF75B
:103F1000ABFFFDF77DFCFDF767FC10BD0FB4054B53
:103F200010B503A9044A029800F0EEF810BC5DF841
:103F300014FB0000414A00080C0000200FB4084B9D
:103F400010B504A902AA039800F0DEF8044602A9FD
:103F5000002000F070FC204610BC5DF814FB00004F
:103F60003748000802E008C8121F08C1002AFAD129
:103F700070477047002001E001C1121F002AFBD1E9
:103F8000704700002DE9FF5F82B00021DDE90430B9
:103F9000020DDDF840B0034318D044F61050A2F2F1
:103FA000FF3242431514119801281FD0A5EB0B00D6
:103FB000401C5FEA000A4FF000064E4FDFF83891D0
:103FC000B046504615D5CAF1000413E011980124FB
:103FD0004AA3012801D16FEA0B010298119AC0E9A6
:103FE0000031C0E9024206B0BDE8F09FCBF100000D
:103FF000DFE704460021404A491842EB0450CDE96E
:10400000001012E0E00707D032463B4640464946E2
:10401000FCF709FA8046894632463B461046194667
:10402000FCF701FA06460F466410002CEAD1DDE9E0
:104030000401DDE90023BAF1000F06DAFCF7F3F919
:1040400042464B46FCF7EFF905E0FCF75EFA4246C4
:104050004B46FCF75AFA04460E460022284BFCF762
:10406000B1FC03D84FF0FF30014607E00022254B9A
:1040700020463146FCF730F9FCF78CFC102409E0AF
:10408000002C0ADB0A220023FCF78EFB039B303254
:104090001A55641E50EA0102F2D1641C039AC4F15D
:1040A00011031444119A012A03D0012208430DD1AF
:1040B0000AE0084304D000204FF0110B119072E782
:1040C000A3EB0B056D1E0DE05B4504DD4FF0000218
:1040D00005F1010504E003DA4FF00002A5F1010546
:1040E000002AECD002981199C0E90231C0E90045DC
:1040F00079E70000000014400000F03F30000000AD
:104100000000F0430000E03F2DE9FF4F95B09B46D3
:104110008946064600250FE2252877D10024274648
:10412000F84A0121059400E0044316F8013F203BC2
:1041300001FA03F01042F7D130782A2811D06FF03D
:104140002F033078A0F13002092A16D8059A44F0DE
:10415000020402EB820203EB42021044761C05903B
:10416000EFE759F8042B0592002A03DA504244F491
:104170000054059044F00204761C30782E2816D1A5
:1041800016F8010F44F004042A280DD06FF02F0216
:104190003078A0F13003092B09D807EB870302EB35
:1041A0004303C718761CF3E759F8047B761C307874
:1041B0006C280FD006DC4C2817D068280DD06A2850
:1041C00014D104E0742810D07A280FD10DE044F403
:1041D00000140AE044F4801401E044F440147278BE
:1041E000824202D104F58014761C761C3078662851
:1041F0000BD013DC582877D009DC002875D045286F
:10420000F6D04628F4D047281AD19DE118E063285B
:1042100035D0642879D0652812D195E1702873D003
:1042200008DC6728F1D069286FD06E280DD06F2880
:1042300006D1B5E073282CD0752875D0782874D0B5
:104240005A46179990476D1C75E1C4F30250022835
:1042500009D003280DD0D9F8001004280DD00D6026
:1042600009F1040967E1D9F80010EA17C1E9005221
:10427000F6E7D9F800100D80F2E70D70F0E719F8B5
:10428000041B8DF8001000208DF80100EA46012083
:1042900003E059F804AB4FF0FF3061074FF0000125
:1042A00002D40DE008F101018846B9420FDA8045D9
:1042B000F8DB1AF808100029F4D108E008F1010130
:1042C00088468142FADB1AF808100029F6D10598D1
:1042D0005B46A0EB080721463846179A00F094FA8F
:1042E000284400EB080507E04DE029E10DE01AF84D
:1042F000010B5A4617999047B8F10108F7D25B466F
:1043000021463846179A13E142E00A220092C4F38C
:1043100002524FF0000A022A08D059F804CB032AAF
:104320004FEAEC710AD00DE029E02AE009F107011B
:1043300021F00702F2E802C1914609E00FFA8CFC75
:104340004FEAEC71042A03D14FFA8CFC4FEAEC716E
:10435000002907DA0A460021DCF1000C61EB0201BA
:104360002D2202E0220504D52B228DF80420012203
:1043700003E0E20701D02022F7E7904659E00A2146
:1043800002E010220DE010214FF0000A00910BE036
:1043900010224FF0000A44F004040827009203E0C2
:1043A00008224FF0000A0092C4F30252022A05D0FC
:1043B00059F804CB0021032A08D009E009F10701CC
:1043C00021F00702F2E802C1914605E01FFA8CFCD9
:1043D000042A01D10CF0FF0C4FF00008220728D569
:1043E000702806D0009B83F0100353EA0A0305D01F
:1043F0000EE040228DF80420012208E05CEA010270
:1044000006D030228DF804208DF805000222904657
:10441000009B83F0080353EA0A030AD15CEA010215
:1044200001D1620705D530228DF804204FF0010834
:104430007F1E582804D034A003900EA802900DE0EF
:1044400036A0F9E753466046009AFCF7ADF984467A
:104450000398825C0298401E029002705CEA0100A0
:10446000F0D1029806A9081A00F1200A600702D5C7
:1044700024F4803400E00127574502DDA7EB0A0051
:1044800000E0002000EB0A01009005984144401A2A
:104490000590E00306D45B462146179A059800F084
:1044A000B3F90544002706E001A85A46C05D1799F4
:1044B00090476D1C7F1C4745F6DBE0030CD55B463F
:1044C0002146179A059800F09FF9054404E0302032
:1044D0005A46179990476D1C0099481E0090002974
:1044E000F5DC08E0029802995A460078491C0291CE
:1044F000179990476D1CBAF10001AAF1010AF1DC8D
:1045000065E1000009280100303132333435363797
:10451000383961626364656600000000303132330F
:1045200034353637383941424344454600000000AF
:1045300000F058F90544761C307800287FF4ECAD83
:1045400019B02846BDE8F08F620700D4062709F1AC
:10455000070222F0070CFCE80223E14603F00048C2
:104560005FEA080C02D00FF2702C0DE05FEA045CE9
:1045700002D50FF2682C07E05FEAC47C02D00FF28C
:10458000602C01E0AFF2700C4FF0FF3823F00043D5
:10459000CDF850C065280CD006DC452809D0462847
:1045A0001DD047283DD13DE0662818D067287ED130
:1045B00038E00021112F01DB112000E0781CCDE94B
:1045C000000106A90EA8FFF7DDFCDDE90F010E9A38
:1045D00003910021009207F1010A04914DE04FF090
:1045E00000400097CDE9011006A90EA8FFF7CAFC0C
:1045F000DDE90F0203920E9B11990022DDF80CA059
:104600000093049211B9791C00EB010AB7EB0A0080
:1046100004D4C0F1FF3007F1010A0490AAEB0700AF
:10462000019044E0012F00DA01270021112F01DD64
:10463000112000E03846CDE9000106A90EA8FFF7D9
:10464000A1FCDDE90F010E9A039100210491009273
:10465000BA4621070CD40399514500DA8A46BAF1CB
:10466000010F05DD009AAAF10101515C302908D043
:10467000B84202DA10F1040F06DA0121CDE9011087
:1046800015E0AAF10101E9E7002805DC04990144DD
:104690000491AAEB000102E0411C514500DD8A466D
:1046A0000499401A401C01904FF0004002902007EE
:1046B00004D40198504501DBCDF8048000208DF82A
:1046C0004F0002980DF14F07B0F1004F25D02B207D
:1046D0000E9002984FF0020800280CDA4042029037
:1046E0002D200E9007E00A210298FCF747F83031A0
:1046F000029007F8011DB8F10001A8F10108F2DCF1
:1047000002980028EFD1791E0E980870307800F0DA
:10471000200040F0450007F8020D12A8C01B00F170
:1047200007081498007800B1012000EB0A010198F5
:1047300001EBE07105984144401A401E0590E003EA
:1047400006D45B462146179A059800F05DF80544AB
:104750001498007818B15A46179990476D1CE003D9
:1047600024D55B462146179A059800F04DF805447C
:104770001CE00498002807DBDDE90301884203DD23
:104780000098405C179901E0179930205A469047ED
:10479000049805F10105401C04900198401E019009
:1047A00004D12E205A46179990476D1CBAF100018A
:1047B000AAF1010ADDDC05E017F8010B5A4617994A
:1047C00090476D1CB8F10001A8F10108F4DC5B46CC
:1047D0002146179A0598ABE62D0000002B0000003B
:1047E000200000002DE9F041044600251E46174632
:1047F000880404D405E039462020B0476D1C641EAF
:10480000F9D52846BDE8F0812DE9F04104460025A0
:104810001E469046C80301D5302700E020278804B3
:1048200004D505E041463846B0476D1C641EF9D5F5
:104830002846BDE8F0810A68531C0B601070704771
:1048400010B50446012005490860204600F02CF808
:1048500000200349C1F8A80110BD0000A8012142B1
:104860000000214210B56FF00400FEF7A9FD0A48D0
:1048700000680A49B0FBF1F0094908700846007861
:1048800000EB4001C1EBC0104FF6FF7101EAC00020
:104890000449088010BD0000080B002000127A00B7
:1048A000080000200A0000200146114A12884A43ED
:1048B0004FF0E0235A6100229A611A46126942F0D1
:1048C00001021A6100BF4FF0E022106900F00102FE
:1048D0001AB100F48032002AF5D04FF0E0221269BC
:1048E00022F001024FF0E0231A6100229A61704722
:1048F0000A000020F8B50025002600242F48006893
:104900003221B0FBF1F084B24FF4616094FBF0F01F
:1049100085B24FF4616094FBF0F100FB11403C2143
:1049200090FBF1F086B23C2094FBF0F100FB1140CB
:1049300084B201200C237F22014600905520FDF710
:104940004AFA002205216320FDF7CCF90022082154
:104950006320FDF7C7F9002205217220FDF7C2F997
:10496000002208217220FDF7BDF92A4614A116483D
:10497000FFF7E4FA00200C23134A0121009056208F
:10498000FDF752FC32460EA10F48FFF7D7FA002080
:104990000C230D4A012100906520FDF745FC2246BD
:1049A00007A10948FFF7CAFA00200C23064A012193
:1049B00000907420FDF738FCF8BD0000D40A0020F8
:1049C0002530326400000000901100201FB5012145
:1049D0000820FDF7F3FE40F20240ADF80C00042081
:1049E0008DF80F0003208DF80E0003A91348FCF783
:1049F00095FD01210846FDF7E1FE01210846FCF77F
:104A00006DFD0220019000208DF8080008208DF82F
:104A1000090001208DF80A0001A8FCF76DFC0720B1
:104A20008DF8000002208DF8010001208DF80200B1
:104A30008DF803006846FDF7DFF81FBD000C01404C
:104A400000BF054A128802F04002002AF9D0C2B223
:104A5000014B1B1D1A8070470038014030B589B0EA
:104A600005460C4600203F23102201460090FDF72A
:104A7000B2F901201021CDE900102807010E102302
:104A80002D4A0020FDF762F9207810232BA2002187
:104A900000901846FDF7C8FB29A103C9CDE907011D
:104AA0002078052307AA002100902020FDF758FB5D
:104AB0006078102324A2194600901846FDF7B4FB35
:104AC0006078102321A2194600902020FDF7ACFB4E
:104AD0001FA0006806906078032306AA10210090AA
:104AE0003020FDF73DFBA07810231AA22021009072
:104AF0001846FDF799FB18A000680590A0780423DC
:104B000005AA202100900846FDF72AFBE078102333
:104B100012A2302100901846FDF786FB10A103C9B0
:104B2000CDE90301E078052303AA3021009020207D
:104B3000FDF716FB09B030BD46000020312E000005
:104B40000A0B0C0607000000322E00005620000061
:104B50000C060700332E00000D0E0607342E000051
:104B60000F100C06070000002DE9FC5F01200F214B
:104B70003623FE4ACDE9001000210846FDF7E6F88D
:104B8000FB4890F8630050B901200C210F23F94A2B
:104B9000CDE9001001463320FDF7D8F809E00120E7
:104BA0000C210F23F44ACDE9001001463320FDF714
:104BB000CDF8EF4890F86A00012809D10C211023A4
:104BC000EE4ACDE9001001464420FDF7BFF809E0A8
:104BD00001200C211023EA4ACDE9001001464420AF
:104BE000FDF7B4F8FFF786FE03F0D8FAE04890F836
:104BF000620050B9012010213023E24ACDE90010B3
:104C000027210B20FDF7A2F818E0D94890F86200A0
:104C1000012809D110213023DB4ACDE900102721DA
:104C20000B20FDF793F809E0012010213023D74A2B
:104C3000CDE9001027210B20FDF788F80120102373
:104C4000D3A2132100904620FDF7EEFAD148006868
:104C5000FBF75BFD05462A460B46CFA1D048FFF780
:104C60006DF901201023CE4A132100905020FDF74A
:104C7000DBFA01201023CBA2262100904620FDF76D
:104C8000D3FA01201023C8A2262100905020FDF75E
:104C9000CBFA01203F2304220F2100900020FDF7D2
:104CA0009AF8002227210120FDF71CF80022272175
:104CB0000320FDF717F801203F237F220F210090EA
:104CC0007B20FDF788F8002227217C20FDF70AF8D9
:104CD000002227217E20FDF705F801203F233E22F8
:104CE0003B2100900720FDF776F801203F23782232
:104CF0003B2100904120FDF76EF89D4890F85F0041
:104D000000287DD000223C212320FCF7EBFF00226D
:104D10003E212320FCF7E6FF00223C215D20FCF72A
:104D2000E1FF00223E215D20FCF7DCFF01203D2356
:104D30007722194600904220FDF74DF88C49D1F8B2
:104D40003200FBF75FFC82460022994BFBF7DDFB4C
:104D500007460022974BFBF7BFFA0546FBF79DFC81
:104D600004460020A11CCAB2A11E0090C8B23D2377
:104D70001946FDF730F801203E237D2210210090D6
:104D80001046FDF728F87A49D1F83600FBF73AFCCF
:104D90008246894A894BFBF7B8FB07460022884BBD
:104DA000FBF73EFB0546FBF778FC0446002000902D
:104DB000A01CC3B2A01EC1B27D221046FDF70BF8A5
:104DC00080488088A0F57A70162190FBF1F01FFAD8
:104DD00080F900200090C9F13E00C1B23E230222BA
:104DE0001046FCF7F8FF01200090C9F13E00C3B265
:104DF000022210211046FCF7EEFF01203D2300E0C7
:104E000023E01A46194600900720FCF7E4FF5849B2
:104E1000D1F83E00FBF7F6FB82460022644BFBF71D
:104E200074FB07460022684BFBF756FA0546FBF772
:104E300034FC04460020A11CCAB2A11E0090C8B2D6
:104E40003D231946FCF7C7FFD2E000223C21222077
:104E5000FCF748FF00223E212220FCF743FF0022FE
:104E60003C215D20FCF73EFF00223E215D20FCF747
:104E700039FF01203D231A46194600900720FCF710
:104E8000AAFF3B49D1F83200FBF7BCFB05460022E4
:104E9000474BFBF73AFB074600224C4BFBF71CFA4B
:104EA0008246FBF7FAFB04460020A11CCAB2A11EF1
:104EB0000090C8B23D231946FCF78DFF01203E2328
:104EC0000222102100901046FCF785FF2849D1F8F6
:104ED0003600FBF797FB8246374A384BFBF715FB4A
:104EE00005460022364BFBF79BFA0746FBF7D5FB3E
:104EF000044600200090A01CC3B2A01EC1B2022232
:104F00001046FCF768FF2F488088A0F57A701621BC
:104F100090FBF1F01FFA80F900200090C9F13E00EB
:104F2000C1B23E237D221046FCF755FF01200090C0
:104F3000C9F13E00C3B27D2210211046FCF74BFFA1
:104F400001203D237722194600904220FCF743FFC1
:104F50000749D1F83E00FBF755FB07460022144BEA
:104F6000FBF7D3FA05460022124B31E09E000020E9
:104F7000A415002072010020040100209E010020E1
:104F8000B60100201602002076020020D602002082
:104F9000540000001400002025312E326656000017
:104FA000280000205200000031322E36560000004A
:104FB000000029400040574014AE47E17A942C404D
:104FC00000804340BC0C0020008041400000414074
:104FD000FBF782F98246FBF760FB04460020A11C28
:104FE000CAB2A11E0090C8B23D231946FCF7F3FED9
:104FF000BDE8FC9F30B585B005460C4620781023EF
:1050000044A2002100900846FDF70EF942A0006876
:1050100004902078042304AA002100901020FDF7BA
:105020009FF8607810233DA2194600900020FDF7FC
:10503000FBF83BA0006803906078042303AA1021CA
:1050400000900846FDF78CF8364890F8620088B961
:10505000012D06D13448007808B9012002E0002073
:1050600000E0012010230C22194600905820FDF783
:1050700005F827E02B4890F86200012811D1012D96
:1050800006D12948007808B9012002E0002000E09C
:10509000012010236E22194600905820FCF7EEFFE5
:1050A00010E0012D06D12048007808B9012002E067
:1050B000002000E0012010236F22194600905820A4
:1050C000FCF7DCFFA078102318A22021009000201C
:1050D000FDF7AAF816A000680290A078042302AA9F
:1050E000202100901020FDF73BF8E078102311A25A
:1050F000302100900020FDF797F80FA00068019084
:10510000E078042301AA302100901020FDF728F850
:1051100005B030BD312E000015161112322E0000E0
:105120001718191AA415002023000020332E0000A0
:105130001B1C191A342E0000001D1E1F10B5044838
:1051400090F86400012802D10620FFF779FB10BD1A
:10515000A41500202DE9F843A0480078002873D159
:105160009F480078012800D100E000209C49097880
:10517000022901D1012100E000210843002856D076
:10518000984890F85F0048B301203D2377221946E4
:1051900000904220FCF71FFE9249D1F83200FBF745
:1051A00031FA80460022904BFBF7AFF90646002209
:1051B0008E4BFBF791F80446FBF78EFA8C4908807A
:1051C000002000900978891CCAB289490978891E93
:1051D000C8B23D231946FCF7FEFD28E001203D231F
:1051E0007722194600904220FCF7F5FD7D49D1F861
:1051F0003E00FBF707FA804600227B4BFBF785F960
:1052000006460022794BFBF767F80446FBF764FA81
:1052100077490880002000900978891CCAB2744937
:105220000978891EC8B23D231946FCF7D4FD6C48A5
:105230000078032801D1012000E0002068490978A6
:10524000042902D1012101E0C3E000210843002824
:105250004ED0644890F85F0050B301203E237D2279
:10526000102100901046FCF7B6FD5E49D1F83600DB
:10527000FBF7C8F906465F4A5F4BFBF746F9044661
:1052800000225E4BFBF7CCF88046FBF725FA584925
:1052900008800020009008460078801CC3B20846B1
:1052A0000078801EC1B27D221046FCF794FD1FE0FD
:1052B000012038230222102100901046FCF78BFDBC
:1052C0004848D0F836000C2190FBF1F0C0F12700DF
:1052D000474908800020009008460078801CC3B22F
:1052E00008460078801EC1B202221046FCF773FD0A
:1052F0003B480078052801D1012000E00020384912
:105300000978062901D1012100E000210843002885
:1053100056D0344890F85F0048B301203D231A4628
:10532000194600900720FCF756FD2E49D1F83E00A3
:10533000FBF768F9064600222B4BFBF7E6F804461C
:1053400000222F4BFAF7C8FF8046FBF7C5F9284922
:105350000880002000900978891CCAB22449097885
:10536000891EC8B23D231946FCF735FD28E001200F
:105370003D231A46194600900720FCF72CFD1949D9
:10538000D1F83200FBF73EF980460022164BFBF7BE
:10539000BCF8064600221B4BFAF79EFF0446FBF7BB
:1053A0009BF913490880002000900978891CCAB233
:1053B0000F490978891EC8B23D231946FCF70BFD39
:1053C000FCF7B2FD1048006882B206490F48FDF7AD
:1053D000FBFE002002490870BDE8F883260000208B
:1053E00022000020A4150020000029400040574062
:1053F0000000002014AE47E17A942C400080434026
:105400000080414000004140DC0A002004FC00080C
:1054100030B585B004460D4601200F231F22002120
:1054200000900846FCF7D7FC20788DF810006078D3
:105430008DF81100A0788DF81200E0788DF8130037
:105440000020042304AA014600902020FCF788FED7
:1054500001200F237F22002100906020FCF7BBFC7D
:105460002878102329A2194600900020FCF7DCFEC2
:1054700020798DF80C0060798DF80D00A0798DF8F9
:105480000E00E0798DF80F002878042303AA10217C
:1054900000900846FCF764FE687810231CA22021C7
:1054A00000900020FCF7C0FE207A8DF80800607A9A
:1054B0008DF80900A07A8DF80A00E07A8DF80B00CB
:1054C0006878042302AA202100901020FCF748FEEF
:1054D000A87810230FA2302100900020FCF7A4FE32
:1054E000207B8DF80400607B8DF80500A07B8DF893
:1054F0000600E07B8DF80700A878042301AA30217C
:1055000000901020FCF72CFE05B030BD312E0000BD
:10551000322E0000332E00007CB58F4890F86B00CF
:10552000C0EB0010800000EBC00101EB00108B49C4
:105530000968B1EB400F49D9874890F86A00012803
:1055400044D187480088052190FBF1F201FB12004D
:1055500090B91420FFF774F98248007878B90120D7
:105560000C210F23804ACDE9001001464420FCF7AE
:10557000EDFBFCF7D9FC02E01420FFF795F9784821
:1055800000880A2190FBF1F201FB120080B97548F6
:10559000007868B901200C211023744ACDE900106D
:1055A00001464420FCF7D2FBFFF7A4F9FCF7BCFC52
:1055B0006B480088401C6A490880084600886428B7
:1055C00004DD002065490860654908806848008856
:1055D000642190FBF1F201FB120000286AD16148BE
:1055E0000078002866D1FFF785F902F0D7FD614801
:1055F0008088A0F57A70162190FBF1F05E49088052
:10560000554890F85F00C0B100200090084600881F
:10561000C0F13E00C1B23E2302221046FCF7DBFB84
:105620000120009054480088C0F13E00C3B202221D
:1056300010211046FCF7CFFB17E0002000904E48E9
:105640000088C0F13E00C1B23E237D221046FCF727
:10565000C2FB0120009048480088C0F13E00C3B260
:105660007D2210211046FCF7B6FB414800884FF41C
:105670007A7190FBF1F201FB1200C8B93F48007843
:10568000012802D10A20FFF7DBF83D480068FBF74C
:105690003CF8044622460B463AA13C48FEF74EFC35
:1056A00001201023394A132100905020FCF7BCFD43
:1056B000FCF73AFC36480078002803DDFFF73EFD92
:1056C000FFF748FD2748007841282CD102F0B6F8B2
:1056D000FCF72AFC002024E02E4931F810201E4956
:1056E000223101EB400109888A4207DD294931F85E
:1056F00010201949223101EB40010A80254931F877
:1057000010201549891C01EB400109888A4207DAFB
:10571000204931F810201049891C01EB40010A8012
:10572000401C0428D8DB0F4800782D2803D101F055
:10573000B9F8FCF7F9FB1848008818B1FFF7FEFC30
:1057400000F0F8F807480078144908700848008805
:10575000401C074908807CBDA4150020D80A002001
:105760000600002026000020880100209E01002065
:1057700004000020BC0C00200200002018000020C3
:105780001400002025312E3266560000280000202B
:1057900022000020AC0C00201A000020270000206E
:1057A00002F064FC01E0FFF7B7FEFCE7FEB5074638
:1057B0000C4615461E4601200F237F220021009033
:1057C0000846FCF708FB00203F237F2210210090B1
:1057D000FCF701FB8DF808708DF809408DF80A5030
:1057E0008DF80B600020042302AA014600902020BF
:1057F000FCF7B6FC01203F237322102100901046D5
:10580000FCF7E9FA01203F237F2210210090104687
:10581000FCF7E1FA012006210F23094ACDE9001027
:1058200010217420FCF792FA012006210F23054A6B
:10583000CDE900103A217420FCF788FAFEBD000083
:10584000300000203B0000202DE9FC5F06460F469B
:1058500014461D46DDF8308039462046FAF7C6FC6E
:10586000294601904046FAF7C1FC83463946304646
:10587000FAF7BCFC59460090FAF7BEFC8246019943
:10588000FAF7ECFC81462946FAF75EFCBDE8FC9F7E
:105890002DE9FC5F04460D4617461E46DDF83080B4
:1058A000B44200DD3446AC4200DA2C46BC4218DA81
:1058B0003846FAF799FE82462846FAF795FE83465F
:1058C0002046FAF791FE01901748184B5246594668
:1058D00000900198FFF7B8FF8146FAF7B1FE044641
:1058E00017E03046FAF780FE82463846FAF77CFE2B
:1058F00083462046FAF778FE01900D480A4B52463F
:10590000594600900198FFF79FFF8146FAF798FEED
:105910000446B8F1000F04D040F6B830001BBDE8D3
:10592000FC9F2046FBE700000080BB4400007A4457
:105930000000FA442DE9F041FCF7B6FCFE4800787F
:1059400041281FD1FD48007841281BD0002017E0D6
:10595000FB4931F81020FB4901EB40010A80F8496E
:1059600031F81020F749103101EB40010A80F44969
:1059700031F81020F349203101EB40010A80401C2E
:105980000428E5DB002030E0EE49303101EB8001F6
:105990000968EC4A921E92F85A20C2F5967291421A
:1059A0000ADDE849891E91F85A10C1F59672E54959
:1059B000303101EB80010A60E249303101EB8001B6
:1059C0000A68E049891E91F85A10A1F596718A4239
:1059D0000ADADC49891E91F85A10A1F59671D94A64
:1059E000303202EB80021160401C0428CCDBD64828
:1059F00040880B287ED1D04800780A280ED1D148A3
:105A0000801ED0F83200CF49891E91F85A10084400
:105A1000CC49891EC1F8320001F0BAFCC6480078B2
:105A20000B280ED1C748801ED0F83600C549891E04
:105A300091F85A100144C348801EC0F8361001F096
:105A4000B5FCBD4800780C280ED1BE48801ED0F8A9
:105A50003A00BC49891E91F85A100144B948801E89
:105A6000C0F83A1001F0B0FCB34800780D280ED110
:105A7000B448801ED0F83E00B249891E91F85A10F1
:105A80000144B048801EC0F83E1001F0ABFCAA48AB
:105A900000780E280ED1AB48801ED0F84200A949EC
:105AA000891E91F85A100144A648801EC0F8421081
:105AB00001F0A6FCA04800780F280ED1A148801E56
:105AC000D0F846009F49891E91F85A1001449D481C
:105AD000801EC0F8461001F0A1FC974800781028FD
:105AE00010D19848801ED0F84A009649891E91F836
:105AF0005A1000E0D6E101449248801EC0F84A10D6
:105B000001F09AFC8C48007811280ED18D48801E37
:105B1000D0F84E008B49891E91F85A1001448948EB
:105B2000801EC0F84E1001F095FC834800781228C2
:105B30000DD18448801E90F8520008B9012000E081
:105B400000208049891E81F8520001F05DFD7A48ED
:105B5000007813280DD17B48801E90F8530008B9B7
:105B6000012100E000217748801E80F8531001F0E9
:105B700059FD7148007814280DD17248801E90F8A4
:105B8000540008B9012100E000216E48801E80F811
:105B9000541001F055FD6848007815280DD169486A
:105BA000801E90F8550008B9012100E000216548E9
:105BB000801E80F8551001F051FD5F4800781628CE
:105BC0000DD16048801E90F8560008B9012100E010
:105BD00000215C48801E80F8561001F04DFD5648AB
:105BE000007817280DD15748801E90F8570008B943
:105BF000012100E000215348801E80F8571001F079
:105C000049FD4D48007818280DD14E48801E90F867
:105C1000580008B9012100E000214A48801E80F8A0
:105C2000581001F045FD4448007819280DD1454829
:105C3000801E90F8590008B9012100E00021414878
:105C4000801E80F8591001F041FD3B4800783D2846
:105C50000DD13C48801E90F85F0008B9012000E09B
:105C600000203849891E81F85F0001F051FF324859
:105C7000007837280AD13348801EB0F86000401CF5
:105C80003049891EA1F8600000F076FE2A480078AD
:105C9000382813D12B49891ED1F85B00FAF735FD5E
:105CA00006462A4A2A4BFAF717FB0446FAF740FD44
:105CB0002449891EC1F85B0000F022FD1E480078CF
:105CC000392813D11F49891ED1F86600FAF71DFD46
:105CD00006461E4A1E4BFAF7FFFA0446FAF728FD5D
:105CE0001849891EC1F8660001F00EF812480078C4
:105CF000342812D11348801E90F85A00401C1149D4
:105D0000891E81F85A00084690F85A00092802DDD9
:105D1000092081F85A0001F0FFFC074800781F288D
:105D200021D10848801E90F86200401C0549891E58
:105D300081F8620008460DE02600002027000020C0
:105D4000AC0C0020A61500201A0000209A99999901
:105D50009999B93F90F86200022802DD002081F88D
:105D6000620001F0C9FEFE48007823280BD1FD48EF
:105D700090F8630008B9012000E00020F94981F89B
:105D8000630001F021FDF648007822280BD1F54888
:105D900090F86E0008B9012000E00020F14981F878
:105DA0006E0001F02BFAEE48007835280BD1ED4853
:105DB00090F8640008B9012000E00020E94981F86A
:105DC000640000F033FCE648007836280BD1E54843
:105DD00090F8650008B9012000E00020E14981F851
:105DE000650001F029F8DE4800783A280BD1DD483B
:105DF00090F86A0008B9012000E00020D94981F834
:105E00006A0001F0E7F8D64800783B2810D1D54861
:105E100090F86B00401CD34981F86B00084690F85D
:105E20006B003C2802DD3C2081F86B0001F048F952
:105E3000CB4800783C280BD1CA4890F86C0008B9D0
:105E4000012000E00020C74981F86C0001F04CF807
:105E5000C34800783F2810D1C24890F86D00401D1B
:105E6000C04981F86D00084690F86D00642802DD95
:105E7000642081F86D0001F007FAB9480078242801
:105E800010D1B84890F86F00801CB64981F86F00B7
:105E9000084690F86F000F2802DD0F2081F86F0090
:105EA00000F002FEB04840880C287CD1AC48007855
:105EB0000A280BD1AB48D0F83200AA4991F85A1001
:105EC000401AA849C1F8320001F062FAA4480078EB
:105ED0000B280BD1A348D0F83600A24991F85A10EC
:105EE000411AA048C0F8361001F060FA9C480078CA
:105EF0000C280BD19B48D0F83A009A4991F85A10D7
:105F0000411A9848C0F83A1001F05EFA94480078B7
:105F10000D280BD19348D0F83E00924991F85A10C1
:105F2000411A9048C0F83E1001F05CFA8C480078A5
:105F30000E280BD18B48D0F842008A4991F85A10AC
:105F4000411A8848C0F8421001F05AFA8448007893
:105F50000F280BD18348D0F84600824991F85A1097
:105F6000411A8048C0F8461001F058FA7C48007881
:105F700010280BD17B48D0F84A007A4991F85A1082
:105F8000411A7848C0F84A1001F056FA744800786F
:105F900011280DD17348D0F84E00724991F85A106B
:105FA000411A704800E0A2E1C0F84E1001F052FA28
:105FB0006B48007812280BD16A4890F8520008B953
:105FC000012000E00020674981F8520001F01CFB2D
:105FD0006348007813280BD1624890F8530008B941
:105FE000012100E000215F4880F8531001F01AFB06
:105FF0005B48007814280BD15A4890F8540008B92F
:10600000012100E00021574880F8541001F018FBEE
:106010005348007815280BD1524890F8550008B91C
:10602000012100E000214F4880F8551001F016FBD7
:106030004B48007816280BD14A4890F8560008B90A
:10604000012100E00021474880F8561001F014FBC0
:106050004348007817280BD1424890F8570008B9F8
:10606000012100E000213F4880F8571001F012FBA9
:106070003B48007818280BD13A4890F8580008B9E6
:10608000012100E00021374880F8581001F010FB92
:106090003348007819280BD1324890F8590008B9D4
:1060A000012100E000212F4880F8591001F00EFB7B
:1060B0002B4800783D280BD12A4890F85F0008B99A
:1060C000012000E00020274981F85F0001F020FD59
:1060D00023480078372808D12248B0F86000401ED5
:1060E0002049A1F8600000F047FC1D4800783828DE
:1060F00011D11C49D1F85B00FAF707FB06461B4A91
:106100001B4BFAF78AF90446FAF712FB1549C1F856
:106110005B0000F0F5FA12480078392811D11149D6
:10612000D1F86600FAF7F1FA0646104A104BFAF772
:1061300074F90446FAF7FCFA0A49C1F8660000F05F
:10614000E3FD0748007834281BD1064890F85A0030
:10615000401E044981F85A00084690F85A0009E0A8
:1061600026000020A41500201A0000209A99999971
:106170009999B93F012802DA012081F85A0001F00B
:10618000CBFAC54800781F2811D1C44890F86200A6
:1061900020B90220C14981F8620006E0BF4890F8AA
:1061A0006200401EBD4981F8620001F0A5FCBA48BA
:1061B000007823280BD1B94890F8630008B9012072
:1061C00000E00020B54981F8630001F0FDFAB24813
:1061D000007822280BD1B14890F86E0008B9012050
:1061E00000E00020AD4981F86E0001F007F8AA48F0
:1061F000007835280BD1A94890F8640008B901202F
:1062000000E00020A54981F8640000F00FFAA248E0
:10621000007836280BD1A14890F8650008B9012014
:1062200000E000209D4981F8650000F005FE9A48D5
:1062300000783A280BD1994890F86A0008B90120F3
:1062400000E00020954981F86A0000F0C3FE924802
:1062500000783B2810D1914890F86B00401E8F4980
:1062600081F86B00084690F86B00012802DA0120E3
:1062700081F86B0000F024FF874800783C280BD1A0
:10628000864890F86C0008B9012000E0002083499E
:1062900081F86C0000F028FE7F4800783F2811D17B
:1062A0007E4890F86D00052803DA05207B4981F8C7
:1062B0006D007A4890F86D00401F784981F86D00B4
:1062C00000F0E2FF74480078242810D1734890F859
:1062D0006F00801E714981F86F00084690F86F00CA
:1062E0000B2802DA0B2081F86F0000F0DDFB6C4810
:1062F000408808287ED1684800780A2801D101F03A
:1063000047F8654800780B2801D101F04FF8624842
:1063100000780C2801D101F057F85F4800780D286B
:1063200001D101F05FF85C4800780E2801D101F03E
:1063300067F8594800780F2801D101F06FF85648E6
:106340000078102801D101F077F85348007811281F
:1063500001D101F07FF850480078122801D101F0F6
:1063600053F94D480078132801D101F05BF94A48F0
:106370000078142801D101F063F947480078152806
:1063800001D101F06BF944480078162801D101F0E1
:1063900073F941480078172801D101F07BF93E4894
:1063A0000078182801D101F083F93B4800781928BA
:1063B00001D101F08BF9384800783D2801D101F076
:1063C000A7FB35480078372801D100F0D5FA3248CC
:1063D0000078382801D100F093F92F48007834284C
:1063E00001D101F099F92C4800781F2801D101F062
:1063F00083FB00E03BE028480078232801D101F02E
:10640000E3F925480078222801D100F0F7FE224860
:106410000078352801D100F009F91F4800783628A6
:1064200001D100F009FD1C4800783A2801D100F0A4
:10643000D1FD194800783B2801D100F041FE1648F3
:1064400000783C2801D100F04FFD1348007839282E
:1064500001D100F059FC104800783F2801D100F02C
:1064600013FF0D480078242801D100F01DFB0A48D5
:1064700000780C490978884206D00B48006882B23F
:1064800006490A48FCF7A0FEFBF74EFD0020044930
:106490000880BDE8F081000026000020A41500203F
:1064A0001A00002027000020DC0A002004FC00085D
:1064B00008B5FBF703FC01203F2340220021009098
:1064C0001846FBF788FC08BD08B5FBF7F7FB012071
:1064D0003F234022002100901846FBF77CFC08BDBA
:1064E00008B5FBF7EBFB01203F2340220021009081
:1064F0001846FBF770FC08BD2DE9F04F85B0064645
:106500000D4691461F46DDE90F4800203F2310222B
:1065100011460090FBF75FFC701E032190FBF1F227
:1065200001FB12000001103000F0FF0A01201021D1
:106530000B463D4ACDE9001051460020FBF706FC12
:10654000287810234A46194600901846FBF76CFE3F
:1065500020788DF8100060788DF81100A0788DF803
:106560001200E0788DF813002878042304AA102183
:1065700000902020FBF7F4FD687810233A46202194
:1065800000901846FBF750FE20798DF80C006079DA
:106590008DF80D00A0798DF80E00E0798DF80F00D0
:1065A0006878042303AA202100900846FBF7D8FD51
:1065B000A87810230090302118460E9AFBF734FE7D
:1065C000207A8DF80800607A8DF80900A07A8DF89D
:1065D0000A00E07A8DF80B00A878042302AA302183
:1065E00000902020FBF7BCFD002039237E221621DD
:1065F00000907420FBF7EFFB700190FBF8F018306F
:1066000000F0FF0A700190FBF8F0133000F0FF0B70
:10661000012053467E22594600907420FBF7DBFB95
:1066200005B0BDE8F08F00004600002000B587B03F
:1066300024A30FCBCDE90523CDE9030125A00068F4
:10664000029002A903A8FEF7E3FE01201021CDE984
:106650000010214890F85A2001235820FBF79AFD9A
:106660001D4890F8640001280FD11C48007808B933
:10667000012000E000200E211023194ACDE900106E
:1066800021215820FBF762FB0EE01448007808B97E
:10669000012000E000200E211023124ACDE9001055
:1066A00021215820FBF752FB01201021CDE90010D9
:1066B000094890F86520012330215820FBF76AFD36
:1066C00007B000BD3637080902034445464748492C
:1066D0002E4A4B4C01000100A4150020230000208D
:1066E000660000208200002008B504A00068009029
:1066F00069460220FEF77EFC08BD00000101000192
:1067000030B587B026A30FCB03AC0FC428A0006818
:10671000029002A903A8FEF77BFE26480068F9F75D
:10672000F4FF044622460B4623A12548FDF706FC4C
:1067300001201023224A194600905820FBF774FDCF
:106740002049D1F85B00F9F7E0FF044622460B46EA
:1067500019A11B48FDF7F2FB1B48007808B901207E
:1067600000E000201023164A202100905820FBF75B
:106770005BFD1449D1F86600F9F7C7FF04462246CD
:106780000B4612A10E48FDF7D9FB012010230C4A3D
:10679000302100905820FBF747FD07B030BD0000C6
:1067A0005051080950513E3F383950511112383973
:1067B000010001001400002025312E326656000031
:1067C00028000020A41500202300002025322E31AF
:1067D0006656000008B504A00068009069460220D3
:1067E000FEF73CF908BD00000101000100B58BB0C7
:1067F0000EA000680A900EA0006809900DA0006825
:1068000008900DA0006807900CA207CA04AB07C34C
:10681000062004A907AA08ABCDE90021029009AA25
:106820000AA90120FFF768FE0BB000BD00010100BE
:10683000312E0000322E0000332E000036370809BA
:10684000505108095253080900B58BB00EA00068DA
:106850000A900EA0006809900DA0006808900DA095
:10686000006807900CA207CA04AB07C3092004A95B
:1068700007AA08ABCDE90021029009AA0AA90720BE
:10688000FFF73AFE0BB000BD00010100372E0000FB
:10689000382E0000392E00003031323334350809EB
:1068A0002F436B4A2DE9F843002455E02C4901EBB6
:1068B0008401096801F5FA60F9F796FE0746284950
:1068C00001EB8401096801F57A70F9F78DFE8046C5
:1068D000244931F81400F9F790FE8146224800233C
:1068E0003A46414600904846FEF7AEFF0646F9F7A5
:1068F000C0FEC5B21D4800781D490978884201D004
:10690000012000E000201B49095DA94201D00121BE
:1069100000E000210843E8B1012023010C33DAB282
:10692000C5F13F03D9B223011B1D0090D8B23F230C
:10693000FBF751FA0020C5F13F01CBB221010C3128
:10694000CAB22101091D0090C8B20021FBF743FA29
:1069500008480555601CC4B2082CA7DBBDE8F883C5
:10696000D6150020BC0C002000007C422600002030
:10697000270000207406002030B587B026A30FCB77
:1069800003AC0FC428A00068029002A903A8FEF778
:106990003FFD26480068F9F7B8FE044622460B463C
:1069A00023A12548FDF7CAFA2448007808B9012038
:1069B00000E000201023204A194600905820FBF7E1
:1069C00033FC1F49D1F85B00F9F79FFE04462246CD
:1069D0000B4617A11848FDF7B1FA01201023164AFB
:1069E000202100905820FBF71FFC1549D1F86600C4
:1069F000F9F78BFE044622460B4612A10E48FDF71E
:106A00009DFA012010230C4A302100905820FBF7FA
:106A10000BFC07B030BD00005051080950513E3FFB
:106A2000383950511112383900010100140000208A
:106A300025312E3266560000280000202300002059
:106A4000A415002025322E316656000000B58BB00B
:106A50000EA000680A900EA0006809900DA00068C2
:106A600008900DA0006807900CA207CA04AB07C3EA
:106A7000062004A907AA08ABCDE90021029009AAC3
:106A80000AA90220FFF738FD0BB000BD010001008C
:106A9000312E0000322E0000332E00003637080958
:106AA000505108095253080908B504A00068009025
:106AB0006946022001F06CF908BD000001010000E8
:106AC00000B58BB00EA000680A900EA00068099077
:106AD0000DA0006808900DA0006807900CA207CADE
:106AE00004AB07C3092004A907AA08ABCDE900211C
:106AF000029009AA0AA9FFF7FFFC0BB000BD000035
:106B000001010000372E0000382E0000392E000051
:106B100030313233343508092F436B4A1CB5FBF74B
:106B2000CDF80120102311A2002100900846FBF7A8
:106B30007BFB10A0006801900120042301AA002122
:106B400000902820FBF70CFB012010230AA2194615
:106B500000900020FBF768FB0120102309A22021F0
:106B600000900020FBF760FB1CBD00004A32305251
:106B7000430000002E256869323032312E30332E2A
:106B80003032000056322E322E31000000B58BB06C
:106B90000EA000680A900EA0006809900DA0006881
:106BA00008900DA0006807900CA207CA04AB07C3A9
:106BB000062004A907AA08ABCDE90021029009AA82
:106BC0000AA9FFF799FC0BB000BD0000010100000D
:106BD000342E0000352E0000362E00003A3B080906
:106BE0003C3D3E3F404166671FB5FBF767F814A187
:106BF00003C9CDE902010120072302AA1021009058
:106C00000020FBF7ADFA012010234622202100903E
:106C10000020FBF733FA012010230BA22021009063
:106C20001846FBF701FB0AA000680190012002232F
:106C300001AA202100903820FBF792FA1FBD000026
:106C40005E40416667080900456E74657200000089
:106C5000646500001CB5FBF731F801F043F8094802
:106C6000006882B208490948FCF7AEFA08A000683B
:106C700001900120042301AA182100902020FBF795
:106C80006FFA1CBDDC0A0020A415002004FC0008DB
:106C900040416C2700B58BB00EA000680A900EA092
:106CA000006809900DA0006808900DA0006807908A
:106CB0000CA207CA04AB07C3092004A907AA08ABA2
:106CC000CDE90021029009AA0AA90320FFF714FCCC
:106CD0000BB000BD01010000312E0000322E00007B
:106CE000332E000000010203000104050607080915
:106CF00008B504A00068009069460320FDF7AEFEC9
:106D000008BD00000101010030B587B026A30FCBFC
:106D100003AC0FC428A00068029002A903A8FEF7E4
:106D200077FB26480068F9F7F0FC044622460B463C
:106D300023A12548FDF702F901201023224A194614
:106D400000905820FBF770FA2049D1F85B00F9F762
:106D5000DCFC044622460B4619A11B48FDF7EEF861
:106D600001201023184A202100905820FBF75CFADC
:106D70001649D1F86600F9F7C8FC044622460B46CE
:106D800013A11148FDF7DAF81348007808B901207B
:106D900000E0002010230C4A302100905820FBF71F
:106DA00043FA07B030BD00005051080950513E3F32
:106DB00038395051111238390101000014000020F7
:106DC00025312E326656000028000020A415002030
:106DD00025322E31665600002300002000B58BB00E
:106DE0000EA000680A900EA0006809900DA000682F
:106DF00008900DA0006807900CA207CA04AB07C357
:106E0000092004A907AA08ABCDE90021029009AA2C
:106E10000AA90420FFF770FB0BB000BD00010100C0
:106E2000342E0000352E0000362E000011121314EF
:106E3000202108090001292600B587B021A30FCB26
:106E4000CDE90523CDE9030122A00068029002A943
:106E500003A8FEF7DDFA01201021CDE900101E483D
:106E600090F85A2001235820FBF794F91A4890F81B
:106E70006400012809D10E211023184ACDE9001021
:106E800021215820FAF762FF09E001200E2110238A
:106E9000134ACDE9001021215820FAF757FF114875
:106EA000007808B9012000E000201021CDE9001091
:106EB000094890F86520012330215820FBF76AF932
:106EC00007B000BD36370809020344454647484924
:106ED0002E4A4B4C01010000A41500206600002042
:106EE000820000202300002000B587B02DA30FCB27
:106EF000CDE90523CDE903012EA00068029002A987
:106F000003A8FEF785FA2C4890F86A00012809D1F9
:106F10000E211023294ACDE9001011215820FAF73B
:106F200015FF09E001200E211023254ACDE90010AC
:106F300011215820FAF70AFF1F4890F86B2021A171
:106F40002248FCF7FBFF01201023204A202100905B
:106F50005820FBF769F9184890F86C0001280FD108
:106F60001B48007808B9012000E000200E21102302
:106F7000124ACDE9001031215820FAF7E7FE0EE061
:106F80001348007808B9012000E000200E211023EA
:106F90000B4ACDE9001031215820FAF7D7FE07B08F
:106FA00000BD00005253080952533839525354550A
:106FB0002E4A5B5C01010000A41500206600002041
:106FC00082000020253032646D696E00901100202F
:106FD0002300002000B587B02DA30FCBCDE90523FA
:106FE000CDE903012EA00068029002A903A8FEF7D4
:106FF0000FFA2C4890F86A0001280FD12A4800782F
:1070000008B9012000E000200E211023274ACDE915
:10701000001011215820FAF799FE0EE0224800785E
:1070200008B9012000E000200E211023204ACDE9FC
:10703000001011215820FAF789FE1A4890F86B20A9
:107040001CA11E48FCF77AFF012010231B4A2021B7
:1070500000905820FBF7E8F8124890F86C000128DF
:1070600009D10E211023114ACDE9001031215820F9
:10707000FAF76CFE09E001200E2110230C4ACDE93D
:10708000001031215820FAF761FE07B000BD000062
:107090005253080952533839525354552E4A5B5CA7
:1070A00000010100A415002023000020660000203C
:1070B00082000020253032646D696E00901100203E
:1070C00000B587B02AA30FCBCDE90523CDE9030195
:1070D0002BA00068029002A903A8FEF799F929489D
:1070E00090F86A00012809D10E211023264ACDE923
:1070F000001011215820FAF729FE09E001200E2185
:107100001023224ACDE9001011215820FAF71EFE63
:107110001C4890F86B201EA11F48FCF70FFF1F486A
:10712000007808B9012000E0002010231A4A20212D
:1071300000905820FBF778F8124890F86C0001286E
:1071400009D10E211023104ACDE900103121582019
:10715000FAF7FCFD09E001200E2110230B4ACDE9CE
:10716000001031215820FAF7F1FD07B000BD0000F2
:107170005253080952533839525354552E4A5B5CC6
:1071800001000100A41500206600002082000020FC
:10719000253032646D696E009011002023000020BC
:1071A00000B58BB00EA000680A900EA00068099090
:1071B0000DA0006808900DA0006807900CA207CAF7
:1071C00004AB07C3062004A907AA08ABCDE9002138
:1071D000029009AA0AA90320FFF78EF90BB000BD9F
:1071E00001010000312E0000322E0000332E00007D
:1071F00036370809505108095253080908B504A048
:10720000006800906946002000F0C2FD08BD000043
:107210000001010000B58BB00EA000680A900EA01E
:10722000006809900DA0006808900DA00068079004
:107230000CA207CA04AB07C3092004A907AA08AB1C
:10724000CDE90021029009AA0AA90520FFF754F907
:107250000BB000BD01000100342E0000352E0000EF
:10726000362E0000111213142021080900012926CE
:1072700008B504A00068009069460020FDF7EEFB09
:1072800008BD00000001010100B587B01FA30FCBAE
:10729000CDE90523CDE9030120A00068029002A9F1
:1072A00003A8FEF7B5F81E4890F85F0040B1012032
:1072B00010232A22194600905820FAF7DFFE07E033
:1072C000012010232B22194600905820FAF7D6FEF1
:1072D000012010236D22194600906820FAF7CEFE97
:1072E0000F4890F86D200FA11048FCF727FE1048BA
:1072F000007808B9012000E0002010230B4A30215B
:1073000000905820FAF790FF07B000BD3A3B0809FB
:107310003A3B56573A3B582459071B5A0101000083
:10732000A41500202530336425250000901100208D
:107330002300002000B58BB00EA000680A900EA0BC
:10734000006809900DA0006808900DA000680790E3
:107350000CA207CA04AB07C3092004A907AA08ABFB
:10736000CDE90021029009AA0AA90120FFF7C4F87B
:107370000BB000BD00010100312E0000322E0000D4
:10738000332E00000001020300010405060708096E
:107390001CB504A103C9CDE900010121684600F034
:1073A0004BFF1CBD00010101010101011CB504A13D
:1073B00003C9CDE900010221684600F03DFF1CBD74
:1073C00001000101010101011CB504A103C9CDE9BE
:1073D00000010321684600F02FFF1CBD01010001E0
:1073E000010101011CB504A103C9CDE9000104217B
:1073F000684600F021FF1CBD0101010001010101EF
:107400001CB504A103C9CDE900010521684600F0BF
:1074100013FF1CBD01010101000101011CB504A104
:1074200003C9CDE900010621684600F005FF1CBD37
:1074300001010101010001011CB504A103C9CDE94D
:1074400000010721684600F0F7FE1CBD01010101A3
:10745000010100011CB504A103C9CDE90001082107
:10746000684600F0E9FE1CBD0101010101010100B7
:1074700000B58BB00EA000680A900EA000680990BD
:107480000DA0006808900DA0006807900CA207CA24
:1074900004AB07C3092004A907AA08ABCDE9002162
:1074A000029009AA0AA90620FFF726F80BB000BD32
:1074B00001010000342E0000352E0000362E0000A1
:1074C0001112131420210809000129261CB504A15A
:1074D00003C9CDE900010121684601F021F91CBD75
:1074E00000010101010101011CB504A103C9CDE99D
:1074F00000010221684601F013F91CBD01000101E1
:10750000010101011CB504A103C9CDE9000103215A
:10751000684601F005F91CBD0101000101010101EE
:107520001CB504A103C9CDE900010421684601F09E
:10753000F7F81CBD01010100010101011CB504A106
:1075400003C9CDE900010521684601F0E9F81CBD39
:1075500001010101000101011CB504A103C9CDE92C
:1075600000010621684601F0DBF81CBD01010101A4
:10757000010001011CB504A103C9CDE900010721E7
:10758000684601F0CDF81CBD0101010101010001B7
:107590001CB504A103C9CDE900010821684601F02A
:1075A000BFF81CBD010101010101010000B58BB054
:1075B0000EA000680A900EA0006809900DA0006857
:1075C00008900DA0006807900CA207CA04AB07C37F
:1075D000092004A907AA08ABCDE90021029009AA55
:1075E0000AA90220FEF788FF0BB000BD01000100D0
:1075F000312E0000322E0000332E00000001020365
:1076000000010405060708091CB504A103C9CDE95A
:1076100000010121684601F071F91CBD0001010162
:10762000010101011CB504A103C9CDE9000102213A
:10763000684601F063F91CBD01000101010101016F
:107640001CB504A103C9CDE900010321684601F07E
:1076500055F91CBD01010001010101011CB504A186
:1076600003C9CDE900010421684601F047F91CBDBA
:1076700001010100010101011CB504A103C9CDE90B
:1076800000010521684601F039F91CBD0101010125
:10769000000101011CB504A103C9CDE900010621C7
:1076A000684601F02BF91CBD010101010100010137
:1076B0001CB504A103C9CDE900010721684601F00A
:1076C0001DF91CBD01010101010100011CB504A14E
:1076D00003C9CDE900010821684601F00FF91CBD7E
:1076E000010101010101010008B504A0006800903A
:1076F00069460320FDF77EFC08BD00000101010082
:1077000008B504A00068009069460120FDF7A6F9BD
:1077100008BD00000100010100B587B021A30FCB17
:10772000CDE90523CDE9030122A00068029002A95A
:1077300003A8FDF76DFE2048007808B9012000E09D
:1077400000201021CDE900101C4890F85A20012398
:107750005820FAF71FFD194890F86400012809D154
:107760000E211023164ACDE9001021215820FAF7E6
:10777000EDFA09E001200E211023124ACDE9001094
:1077800021215820FAF7E2FA01201021CDE900105A
:107790000A4890F86520012330215820FAF7FAFCB6
:1077A00007B000BD3637080902034445464748493B
:1077B0002E4A4B4C0001010023000020A41500209C
:1077C000660000208200002008B504A00068009038
:1077D0006946012000F0DCFA08BD0000010001004C
:1077E00000B58BB00EA000680A900EA0006809904A
:1077F0000DA0006808900DA0006807900CA207CAB1
:1078000004AB07C3062004A907AA08ABCDE90021F1
:10781000029009AA0AA90520FEF76EFE0BB000BD72
:1078200001000100342E0000352E0000362E00002D
:107830003A3B08093C3D3E3F404166671CB501208C
:10784000102350A2002100900220FAF7EDFC012045
:107850001021CDE900104C48428804230021122059
:10786000FAF798FC01201021CDE900104648428A21
:10787000042300213820FAF78DFC01201021CDE9E6
:1078800000104148428C042300215F20FAF782FC5B
:10789000012010233DA2194600900220FAF7C4FCF3
:1078A00001201021CDE900103748828804231220DE
:1078B000FAF770FC01201021CDE900103248828ACD
:1078C00004233820FAF766FC01201021CDE90010CE
:1078D0002D48828C04235F20FAF75CFC01201023E2
:1078E0002BA2202100900220FAF79EFC01201021FB
:1078F000CDE900102448C288042320211220FAF781
:1079000049FC01201021CDE900101F48C28A042340
:1079100020213820FAF73EFC01201021CDE900108B
:107920001948C28C042320215F20FAF733FC012080
:10793000102318A2302100900220FAF775FC0120D4
:107940001021CDE9001010480289042330211220B3
:10795000FAF720FC01201021CDE900100A48028B23
:10796000042330213820FAF715FC01201021CDE93D
:1079700000100548028D042330215F20FAF70AFC2D
:107980001CBD0000313A0000A4150020323A00006E
:10799000333A0000343A000000B589B0FAF78EF9A6
:1079A000012010232BA2002100900846FAF73CFC8E
:1079B00029A103C9CDE907010120062307AA002157
:1079C00000901020FAF7CCFB0120102324A2002104
:1079D00000907020FAF728FC22A103C9CDE9050127
:1079E0000120062305AA102100900846FAF7B8FBEB
:1079F000012010231DA2202100900020FAF714FC82
:107A00001BA103C9CDE903010120072303AA2021FB
:107A100000901020FAF7A4FB012010234622302109
:107A200000900020FAF72AFB0120102312A2302137
:107A300000901846FAF7F8FB11A0006802900120A8
:107A4000022302AA302100903820FAF789FB09B0FE
:107A500000BD0000312E00005D5E2C2D5F60000037
:107A60002C00000061623A3B00010000322E000051
:107A70005D5E11124A635000456E7465720000002D
:107A80006465000008B504A0006800906946002005
:107A9000FDF7B0FA08BD00000001010100B58BB090
:107AA0000EA000680A900EA0006809900DA0006862
:107AB00008900DA0006807900CA207CA04AB07C38A
:107AC000092004A907AA08ABCDE90021029009AA60
:107AD0000AA90820FEF710FD0BB000BD010001004F
:107AE000372E0000382E0000392E0000303132339E
:107AF000343508092F436B4A08B504A0006800908C
:107B000069460120FDF776FA08BD00000100010179
:107B100000B587B024A30FCBCDE90523CDE9030140
:107B200025A00068029002A903A8FDF771FC234874
:107B300090F85F0068B12248007808B9012000E0A1
:107B4000002010232A22194600905820FAF796FAAE
:107B50000CE01B48007808B9012000E00020102349
:107B60002B22194600905820FAF788FA144800781A
:107B700008B9012000E0002010236D221946009072
:107B80006820FAF77BFA0D4890F86D200DA10F4898
:107B9000FCF7D4F9012010230C4A30210090582022
:107BA000FAF742FB07B000BD3A3B08093A3B56578B
:107BB0003A3B582459071B5A00010100A415002024
:107BC000230000202530336425250000901100207B
:107BD00000B587B01DA30FCBCDE90523CDE9030187
:107BE0001EA00068029002A903A8FDF711FC1C4822
:107BF00090F85F0040B1012010232A22194600901E
:107C00005820FAF73BFA07E0012010232B221946EF
:107C100000905820FAF732FA012010236D221946FD
:107C200000906820FAF72AFA0D4890F86D200DA10F
:107C30000E48FCF783F9012010230C4A30210090F4
:107C40005820FAF7F1FA07B000BD00003A3B0809E6
:107C50003A3B56573A3B582459071B5A010001003A
:107C6000A415002025303364252500009011002044
:107C700000B58BB00EA000680A900EA000680990B5
:107C80000DA0006808900DA0006807900CA207CA1C
:107C900004AB07C3062004A907AA08ABCDE900215D
:107CA000029009AA0AA90420FEF726FC0BB000BD29
:107CB00000010100342E0000352E0000362E000099
:107CC0003A3B08093C3D3E3F4041666710B50246DD
:107CD000012000E050430B1EA1F10104E1B2F9D1F3
:107CE00010BD000000201CE00022264901EB4001ED
:107CF0000A8040F2FF722349103101EB40010A80F3
:107D000040F6FF721F49203101EB40010A8000223A
:107D10001C49303101EB80010A601A4950310A5484
:107D2000401C0828E0DB02201649891E81F85A0011
:107D30001548C1F85B00012081F85F004FF47A70AC
:107D4000A1F86000002081F86200012081F8630042
:107D500081F86400002081F865000C48C1F86600D5
:107D6000002081F86A00052081F86B00002081F86E
:107D70006C0081F86D0081F86E000F2081F86F00B3
:107D800070470000A6150020CDCC6C40CDCC3C4106
:107D900030B587B004460D4601200F231F22002175
:107DA00000900846FAF717F888A0006806900020AF
:107DB000042306AA014600902020FAF7D1F90120F9
:107DC0000F237F22002100906020FAF704F8287822
:107DD00010237FA2194600900020FAF725FA7EA012
:107DE000006805902878022305AA10210090282019
:107DF000FAF7B6F9794890F86E00012816D134B92F
:107E00007748007808B9012002E0002000E0012056
:107E10000E211023734ACDE9001011215820F9F7E3
:107E200095FF01217048FBF7E6FD15E034B96C4879
:107E3000007808B9012002E0002000E001200E21B6
:107E400010236A4ACDE9001011215820F9F77EFF6E
:107E500000216548FBF7CFFD6878102364A220213C
:107E600000900020FAF7E0F962A0006804906878BA
:107E7000042304AA202100901020FAF771F9574832
:107E800090F86300012818D1012C06D154480078DD
:107E900008B9012002E0002000E001200E2110239B
:107EA000504ACDE9001021215820F9F74FFF4B49E6
:107EB00091F86F00F9F7F8FD14E0012C06D148485D
:107EC000007808B9012002E0002000E001200E2126
:107ED0001023464ACDE9001021215820F9F736FF3A
:107EE000F9F7A2FDA878102343A2302100900020CA
:107EF000FAF79AF941A000680390A878042303AA2E
:107F0000302100901020FAF72BF9344890F86F00D8
:107F10000B283BD00D281DD00F2853D1022C06D1A1
:107F20002F48007808B9012002E0002000E001207D
:107F300010237022302100905820FAF79FF827482C
:107F400090F86300012804D1244991F86F00F9F7F3
:107F5000ABFD38E0022C06D12148007808B9012099
:107F600002E0002000E00120102360223021009078
:107F70005820FAF783F8194890F86300012804D1D3
:107F8000164991F86F00F9F78FFD1CE0022C06D11D
:107F90001348007808B9012002E0002000E0012029
:107FA00010237122302100905820FAF767F80B480F
:107FB00090F86300012804D1084991F86F00F9F79F
:107FC00073FD00E000BF00BF07B030BD20210809ED
:107FD000312E50504D00000020210000A41500203B
:107FE00023000020660000200008004082000020DE
:107FF000322E000023242526332E00002526272894
:1080000030B589B0002400BF25E044B9002001AAA2
:1080100002F8140000216000401C115419E0082CE3
:108020000FDC601E104931F81000000A01AA02F8A6
:108030001400601E31F81000C1B26000401C1154E1
:1080400007E0FF2001AA02F81400FF216000401C95
:108050001154601C84B2102CD7DB01A8F9F758FD2D
:108060000546284609B030BDBC0C00201CB5FCF705
:10807000F9FB4FF4A060F9F7F7FD4FF4E13000F0A1
:10808000F9FD472140F2CF70FBF7DEF9472144F6B6
:108090001F60FBF74FFCF8F7B5FFF8F745FDFAF75F
:1080A0009DFFFAF79FFDF8F71DFEF9F7FDFBF9F7C5
:1080B0004DFCFAF70BFB1420FCF7C2FBF9F7A6FE08
:1080C000F9F7DCFD2F4890F86500402180232E4A07
:1080D000CDE9001000210846F9F738FEF9F724FF32
:1080E0000AE06420FCF7E0FB2848006808B901209A
:1080F00000E0002025490860F9F700FC0028F0D1D5
:10810000224908604FF47A70FCF7CEFBF9F7D6FDF0
:108110001C4890F86C00012822D11D488088B0F5D9
:10812000966F15DD1BA0006801900120042301AAB1
:10813000182100901E20FAF713F80120102316A230
:10814000182100905E20FAF76FF8F9F7EDFE00BFF6
:1081500000BF0F488088B0F5966FFADCF9F7AEFDE6
:10816000084890F86300012805D1064991F86F008E
:10817000F9F79AFC01E0F9F757FCFCF7F5FCF9F781
:10818000D3FE1CBDA4150020D2060020A801214268
:10819000BC0C00203A3B3839210000001CB50024FB
:1081A00000BF3DE0201D204931F8100040F2E241BF
:1081B00088420EDA01201221CDE9001004EB4401BF
:1081C00089000E31C8B20B23184A1221F9F7BEFDFF
:1081D00024E0201D144931F8100040F2D661884295
:1081E0000EDA01201221CDE9001004EB44018900D0
:1081F0000E31C8B20B230E4A1221F9F7A7FD0DE08C
:1082000001201221CDE9001004EB440189000E3158
:10821000C8B20B23074A1221F9F798FD601CC4B2BB
:10822000042CBFDB1CBD0000BC0C0020CE010020D4
:10823000E6010020FE0100207CB504460D462078B2
:108240001023FEA2002100900120F9F7EDFF012D7F
:1082500017D1FB48D0F83260FA48007808B90120FD
:1082600000E000201021CDE90010002E01DB304697
:1082700000E070420246032300211E20F9F78AFF26
:1082800011E0EF48D0F8326001201021CDE9001054
:10829000002E01DB304600E070420246032300213D
:1082A0001E20F9F777FFE648D0F83200002808DAF8
:1082B00001201023E4A2002100903620F9F7B4FF3A
:1082C00007E001201023E1A2002100903620F9F7F9
:1082D000ABFF60781023DEA2194600900120F9F769
:1082E000A3FF022D17D1D648D0F83660D5480078C4
:1082F00008B9012000E000201021CDE90010002E77
:1083000001DB304600E070420246032310211E20AC
:10831000F9F740FF11E0CA48D0F83660012010217B
:10832000CDE90010002E01DB304600E0704202462D
:10833000032310211E20F9F72DFFC148D0F8360085
:10834000002808DA01201023BFA219460090362029
:10835000F9F76AFF07E001201023BCA2194600903C
:108360003620F9F761FFA0781023BAA220210090EF
:108370000120F9F759FF032D17D1B148D0F83A6021
:10838000B048007808B9012000E000201021CDE9B4
:108390000010002E01DB304600E07042024603234D
:1083A00020211E20F9F7F6FE11E0A548D0F83A602A
:1083B00001201021CDE90010002E01DB304600E045
:1083C00070420246032320211E20F9F7E3FE9C4859
:1083D000D0F83A00002808DA012010239AA22021C0
:1083E00000903620F9F720FF07E00120102397A224
:1083F000202100903620F9F717FFE078102396A28D
:10840000302100900120F9F70FFF042D17D18C487F
:10841000D0F83E608B48007808B9012000E00020C9
:108420001021CDE90010002E01DB304600E0704243
:108430000246032330211E20F9F7ACFE11E08048EC
:10844000D0F83E6001201021CDE90010002E01DBA4
:10845000304600E070420246032330211E20F9F727
:1084600099FE7748D0F83E00002808DA0120102352
:1084700075A2302100903620F9F7D6FE07E00120E2
:10848000102372A2302100903620F9F7CDFE20791A
:10849000102372A2002100904220F9F7C5FE052D9D
:1084A00017D16748D0F842606648007808B90120C3
:1084B00000E000201021CDE90010002E01DB304645
:1084C00000E070420246032300215F20F9F762FEBC
:1084D00011E05B48D0F8426001201021CDE9001086
:1084E000002E01DB304600E07042024603230021EB
:1084F0005F20F9F74FFE5248D0F84200002808DA12
:108500000120102350A2002100907720F9F78CFE63
:1085100007E0012010234DA2002100907720F9F7F9
:1085200083FE607910234EA2194600904220F9F78D
:108530007BFE062D17D14248D0F8466041480078AE
:1085400008B9012000E000201021CDE90010002E24
:1085500001DB304600E070420246032310215F2019
:10856000F9F718FE11E03648D0F8466001201021D6
:10857000CDE90010002E01DB304600E070420246DB
:10858000032310215F20F9F705FE2D48D0F846009F
:10859000002808DA012010232BA21946009077202A
:1085A000F9F742FE07E00120102328A219460090A7
:1085B0007720F9F739FEA07910232AA22021009014
:1085C0004220F9F731FE072D17D11D48D0F84A6037
:1085D0001C48007808B9012000E000201021CDE9F6
:1085E0000010002E01DB304600E0704202460323FB
:1085F00020215F20F9F7CEFD11E01148D0F84A6044
:1086000001201021CDE90010002E01DB304600E0F2
:1086100070420246032320215F20F9F7BBFD084882
:10862000D0F84A0000281FDA0120102306A22021DA
:1086300000907720F9F7F8FD1FE000004348310073
:10864000A4150020230000202D0000002B000000B6
:108650004348320043483300434834004348350020
:10866000434836004348370001201023AFF224026C
:10867000202100907720F9F7D7FDE079102325A27B
:10868000302100904220F9F7CFFD082D17D1224864
:10869000D0F84E602148007808B9012000E00020A1
:1086A0001021CDE90010002E01DB304600E07042C1
:1086B0000246032330215F20F9F76CFD11E01648D4
:1086C000D0F84E6001201021CDE90010002E01DB12
:1086D000304600E070420246032330215F20F9F764
:1086E00059FD0D48D0F84E00002809DA012010236A
:1086F000AFF2AC02302100907720F9F795FD08E049
:1087000001201023AFF2BC02302100907720F9F74E
:108710008BFD7CBD43483800A415002023000020B9
:1087200038B504460D462078102363A2002100903E
:108730000120F9F779FD012D06D16048007808B9CC
:10874000012002E0002000E0012010235CA20021B3
:1087500000902820F9F768FD6078102359A2194687
:1087600000900120F9F760FD022D06D153480078F2
:1087700008B9012002E0002000E00120102352A2ED
:10878000194600902820F9F74FFDA07810234FA23A
:10879000202100900120F9F747FD032D06D147481D
:1087A000007808B9012002E0002000E00120102339
:1087B00047A2202100902820F9F736FDE078102309
:1087C00044A2302100900120F9F72EFD042D06D19E
:1087D0003A48007808B9012002E0002000E00120BA
:1087E00010233DA2302100902820F9F71DFD2079AB
:1087F00010233AA2002100904220F9F715FD052D23
:1088000006D12E48007808B9012002E0002000E0DF
:108810000120102332A2002100906920F9F704FD05
:10882000607910232FA2194600904220F9F7FCFC32
:10883000062D06D12148007808B9012002E0002069
:1088400000E00120102328A2194600906920F9F7C2
:10885000EBFCA079102325A2202100904220F9F7FB
:10886000E3FC072D06D11548007808B9012002E085
:10887000002000E0012010231DA22021009069208B
:10888000F9F7D2FCE07910231AA23021009042209F
:10889000F9F7CAFC082D06D10848007808B901206C
:1088A00002E0002000E00120102313A230210090FC
:1088B0006920F9F7B9FC38BD434831002300002096
:1088C0005931000043483200593200004348330018
:1088D0005933000043483400593400004348350000
:1088E0004B310000434836004B320000434837000C
:1088F0004B330000434838004B3400007CB505463C
:108900000C4628781023CFA2002100900120F9F70F
:108910008BFCCD4890F85200012813D1012C06D1D0
:10892000CA48007808B9012002E0002000E00120D8
:108930000E211023C64ACDE9001001211E20F9F7AF
:1089400005FA12E0012C06D1C048007808B90120D0
:1089500002E0002000E001200E211023BD4ACDE9F5
:10896000001001211E20F9F7F1F968781023BAA24E
:10897000194600900120F9F757FCB34890F85300CE
:10898000012813D1022C06D1B048007808B9012083
:1089900002E0002000E001200E211023AC4ACDE9C6
:1089A000001011211E20F9F7D1F912E0022C06D196
:1089B000A648007808B9012002E0002000E001206C
:1089C0000E211023A34ACDE9001011211E20F9F732
:1089D000BDF9A8781023A1A2202100900120F9F769
:1089E00023FC994890F85400012813D1032C06D198
:1089F0009648007808B9012002E0002000E001203C
:108A00000E211023924ACDE9001021211E20F9F7F2
:108A10009DF912E0032C06D18C48007808B901209A
:108A200002E0002000E001200E211023894ACDE958
:108A3000001021211E20F9F789F9E878102388A277
:108A4000302100900120F9F7EFFB7F4890F85500A6
:108A5000012813D1042C06D17C48007808B90120E4
:108A600002E0002000E001200E211023784ACDE929
:108A7000001031211E20F9F769F912E0042C06D10B
:108A80007248007808B9012002E0002000E00120CF
:108A90000E2110236F4ACDE9001031211E20F9F775
:108AA00055F9287910236FA2002100904220F9F790
:108AB000BBFB654890F85600012813D1052C06D160
:108AC0006248007808B9012002E0002000E001209F
:108AD0000E2110235E4ACDE9001001215E20F9F736
:108AE00035F912E0052C06D15848007808B9012064
:108AF00002E0002000E001200E211023554ACDE9BC
:108B0000001001215E20F9F721F96879102356A29F
:108B1000194600904220F9F787FB4B4890F8570020
:108B2000012813D1062C06D14848007808B9012045
:108B300002E0002000E001200E211023444ACDE98C
:108B4000001011215E20F9F701F912E0062C06D180
:108B50003E48007808B9012002E0002000E0012032
:108B60000E2110233B4ACDE9001011215E20F9F7B8
:108B7000EDF8A87910233DA2202100904220F9F7BA
:108B800053FB314890F85800012813D1072C06D127
:108B90002E48007808B9012002E0002000E0012002
:108BA0000E2110232A4ACDE9001021215E20F9F779
:108BB000CDF812E0072C06D12448007808B901202E
:108BC00002E0002000E001200E211023214ACDE91F
:108BD000001021215E20F9F7B9F8E879102324A2CA
:108BE000302100904220F9F71FFB174890F85900F8
:108BF000012813D1082C06D11448007808B90120A7
:108C000002E0002000E001200E211023104ACDE9EF
:108C1000001031215E20F9F799F812E0082C06D1F6
:108C20000A48007808B9012002E0002000E0012095
:108C30000E211023074ACDE9001031215E20F9F7FB
:108C400085F87CBD43483100A41500202300002096
:108C50006600002082000020434832004348330071
:108C60004348340043483500434836004348370002
:108C70004348380010B586B00446012144F209008B
:108C8000F9F79CFD01210420F8F7D4FC2248FAF7FB
:108C9000DBFF4020ADF8140003208DF816001820EB
:108CA0008DF8170005A91D48F8F738FC8020ADF8AD
:108CB000140004208DF8170005A91848F8F72EFCB9
:108CC00001940020ADF80800ADF80A00ADF80C00E2
:108CD000ADF810000C20ADF80E0001A90E48FBF70E
:108CE00051F825208DF8000003208DF801008DF843
:108CF000020001208DF803006846F8F77DFF01228D
:108D000040F225510448FBF717F801210248FAF711
:108D10008FFF06B010BD000000380140000C01407C
:108D200048000000000C0140200000000800000086
:108D300048000000000C0140100000000800000086
:108D400048000000000C014008000000080000007E
:108D500048000000000801400080000004000000FE
:108D6000480000000008014000100000040000005E
:108D70004800000000080140000800000400000056
:108D800048000000000C014000080000080000003E
:108D900034431010013443101001000000000000A3
:108DA000000000000000000000003F400000000044
:108DB00000000000300040003000400000000900CA
:108DC0000BC03D000BC03D00090018C024407FE0EF
:108DD000224031800000180024C01B000D8032406A
:108DE000018003801C4027401C8007400040100089
:108DF0006000000000000000000000000000000013
:108E00001F80204040200000402020401F800000A4
:108E10000000090006001F80060009000000040091
:108E200004003F8004000400000000100060000007
:108E3000000000000000040004000400040004001E
:108E400000000000004000000000000000000020C2
:108E500001C006003800400000001F802040204074
:108E600020401F800000000010403FC00040000074
:108E7000000018C02140224024401840000010800B
:108E80002040244024401B80000002000D001100FF
:108E90003FC0014000003C80244024402440238007
:108EA00000001F8024402440344003800000300034
:108EB000200027C03800200000001B8024402440F0
:108EC00024401B8000001C0022C0224022401F8042
:108ED000000000000000084000000000000000004A
:108EE00000000460000000000000000004000A0010
:108EF0001100208040400900090009000900090014
:108F0000000000004040208011000A00040018000A
:108F1000200023402400180000001F80204027402C
:108F200029401F400000004007C039000F0001C069
:108F3000004020403FC0244024401B8000001F8090
:108F40002040204020403080000020403FC0204092
:108F500020401F80000020403FC024402E4030C0F1
:108F6000000020403FC024402E00300000000F00D1
:108F70001080204022403380020020403FC0040087
:108F800004003FC02040204020403FC020402040FF
:108F900000000060202020203FC020002000204052
:108FA0003FC024400B0030C0204020403FC0204044
:108FB0000040004000C03FC03C0003C03C003FC038
:108FC000000020403FC00C4023003FC020001F8015
:108FD0002040204020401F80000020403FC024400F
:108FE0002400180000001F802140214020E01FA025
:108FF000000020403FC02440260019C0004018C097
:1090000024402440224031800000300020403FC0F6
:1090100020403000000020003F80004000403F80A2
:10902000200020003E0001C007003800200038006A
:1090300007C03C0007C038000000204039C00600CF
:1090400039C0204000002000384007C038402000D0
:109050000000304021C02640384020C00000000001
:1090600000007FE0402040200000000070000C0065
:109070000380004000000000402040207FE000000E
:109080000000000020004000200000000000001050
:109090000010001000100010001000000000400040
:1090A000000000000000000002800540054003C0F1
:1090B000004020003FC00440044003800000000046
:1090C0000380044004400640000000000380044088
:1090D00024403FC00040000003800540054003409D
:1090E0000000000004401FC0244024402000000075
:1090F00002E0055005500650042020403FC00440C7
:10910000040003C000400000044027C000400000ED
:10911000000000100010041027E0000000002040B4
:109120003FC00140070004C00440204020403FC031
:1091300000400040000007C0040007C0040003C056
:109140000000044007C00440040003C000400000C9
:1091500003800440044003800000041007F0045022
:10916000044003800000000003800440045007F026
:109170000010044007C0024004000400000000008A
:1091800006400540054004C00000000004001F80A8
:10919000044000400000040007800040044007C075
:1091A00000400400070004C001800600040006001F
:1091B00001C0070001C006000000044006C0010015
:1091C00006C0044000000410071004E001800600FF
:1091D00004000000044005C00640044000000000F8
:1091E000000004007BE040200000000000000000C0
:1091F000FFF000000000000040207BE004000000C1
:1092000000004000800040002000200040000000DE
:10921000000000000000000000000000000000004E
:10922000000000001FCC000C000000000000000047
:1092300008003000600008003000600000000220DC
:1092400003FC1E20022003FC1E2002200000000060
:109250000E1811043FFF10840C78000000000F006E
:1092600010840F3800C00778188400780000007858
:109270000F8410C411240E9800E400840008080034
:109280006800700000000000000000000000000006
:109290000000000007E01818200440020000000051
:1092A00040022004181807E00000000000000240FF
:1092B000024001800FF00180024002400000008067
:1092C000008000800FF80080008000800000000116
:1092D000000D000E00000000000000000000000073
:1092E00000800080008000800080008000800000FE
:1092F000000C000C00000000000000000000000056
:109300000006001800600180060018002000000020
:1093100007F0080810041004080807F00000000017
:10932000080408041FFC0004000400000000000002
:109330000E0C10141024104411840E0C00000000B8
:109340000C1810041104110412880C7000000000A5
:1093500000E00320042408241FFC00240000000077
:109360001F98108411041104108810700000000070
:1093700007F008881104110418880070000000002C
:109380001C00100010FC13001C0010000000000066
:109390000E3811441084108411440E38000000006F
:1093A0000700088C10441044088807F000000000F3
:1093B00000000000030C030C00000000000000008F
:1093C0000000000101060000000000000000000095
:1093D0000080014002200410080810040000022050
:1093E00002200220022002200220022000000000B1
:1093F0001004080804100220014000800000000052
:109400000E001200100C106C10800F00000003E022
:109410000C1813E4142417C4082807D00000000413
:10942000003C03C41C40074000E4001C000410047E
:109430001FFC1104110411040E880070000003E0E9
:109440000C1810041004100410081C100000100464
:109450001FFC100410041004080807F0000010049A
:109460001FFC1104110417C4100408180000100494
:109470001FFC1104110017C010000800000003E0D9
:109480000C181004100410441C7800400000100454
:109490001FFC10840080008010841FFC100400005A
:1094A000100410041FFC100410040000000000034E
:1094B0000001100110011FFE100010000000100438
:1094C0001FFC110403801464181C10040000100415
:1094D0001FFC1004000400040004000C0000100431
:1094E0001FFC1F0000FC1F001FFC100400001004E4
:1094F0001FFC0C04030000E010181FFC100007F014
:109500000808100410041004080807F000001004F4
:109510001FFC10841080108010800F00000007F0E6
:10952000081810241024101C080A07F20000100468
:109530001FFC1104110011C011300E0C00040000BA
:109540000E1C11041084108410441C3800001800F4
:10955000100010041FFC1004100018000000100080
:109560001FF810040004000410041FF8100010007D
:109570001E0011E0001C007013801C0010001FC0B2
:10958000103C00E01F0000E0103C1FC00000100471
:10959000180C163401C001C01634180C1004100049
:1095A0001C00130400FC13041C001000000008043D
:1095B000101C1064108413041C0410180000000018
:1095C000000000007FFE4002400240020000000058
:1095D00030000C0003800060001C0003000000004D
:1095E0004002400240027FFE000000000000000038
:1095F000000020004000400040002000000000016A
:109600000001000100010001000100010001000053
:1096100040004000200000000000000000000000AA
:109620000098012401440144014400FC000410009E
:109630001FFC008801040104008800700000000085
:10964000007000880104010401040088000000008B
:10965000007000880104010411081FFC00040000D0
:1096600000F8014401440144014400C80000000026
:10967000010401040FFC1104110411001800000082
:1096800000D601290129012901C9010600001004A1
:109690001FFC008401000100010400FC0004000024
:1096A0000104190419FC000400040000000000007B
:1096B000000300010101190119FE0000000010045F
:1096C0001FFC0024004001B4010C01040000000054
:1096D000100410041FFC000400040000000001043A
:1096E00001FC0104010001FC0104010000FC010473
:1096F00001FC008401000100010400FC00040000E2
:1097000000F8010401040104010400F80000010153
:1097100001FF0085010401040088007000000000C2
:109720000070008801040104010501FF000101042B
:10973000010401FC0084010401000180000000001C
:1097400000CC012401240124012401980000000020
:109750000100010007F801040104000000000100FD
:1097600001F8000400040004010801FC00040100E9
:1097700001800170000C001001600180010001F007
:10978000010C003001C00030010C01F001000000AC
:109790000104018C00740170018C010400000101BE
:1097A00001810171000E00180160018001000000BC
:1097B0000184010C013401440184010C000000000B
:1097C00000000000000001003EFC400240020000DA
:1097D000000000000000FFFF00000000000000008B
:1097E000400240023EFC01000000000000000000BA
:1097F0006000800080004000400020002000000049
:109800000000000000000000000000000000000058
:109810000000000000000000000000000000000048
:109820000000000000000000000000000000000038
:109830000000000000000000000000000000000028
:10A550000000000000000000000088104FE0001024
:10A560009FD09510D510BFD0B510D5501FD000107A
:10A5700000000201420233FC0002000147FF449147
:10A58000549154914FFD54916495449307FD0001FB
:10A59000000002000202420433F80004100297FA9D
:10A5A00055521D5215521552555297FA100200027B
:10A5B00000000880110023FFCC010102797C0940D2
:10A5C000F940097C790804111BE6E8180FE6080138
:10A5D00000000200420033FC000800117FFE410031
:10A5E000497849487F484948497A41017FFE00003F
:10A5F000000000024002400243FE400240024002CE
:10A600007FFE41024102410241024102400200023A
:10A6100000000002000C3FF124012402270224C4A0
:10A620002428441044284444C58246020001000105
:10A63000000008200620407E318000007F7F491105
:10A64000491249124900497E490949117F110027E1
:10A650000000084008420881FFFE090004021902B8
:10A66000124214429042707E144212421542180265
:10A67000000002000200420033FC00090211050242
:10A6800079C2413441084114796205820401040110
:10A6900000000002E802A802ABFEAAAAEAAAAAAA3F
:10A6A000BEAAAAAAEAAAAAAAABFEA802E8020002C7
:10A6B00000000004200421042104210421042104B9
:10A6C0002104210421042104210421042004000484
:10A6D00000000401080617F82490E49024902490C8
:10A6E00027FE24902C903492049107FE0000000075
:10A6F000000000049004D7D4A555A556857CFD54D0
:10A7000007D49554D57CA556A55587D4F8040004E4
:10A7100000000082208424882491A4A164D1279180
:10A720003C91249F6491A4912491249120810080E4
:10A73000000002000202420433F8000420122F221B
:10A7400029422982FFFA298229422F22201200025F
:10A7500000001080110097FF58800342242428A88D
:10A76000FEA228A104BE28A0FEA028A8242402023C
:10A770000000000040FF5E925292529252FE5292AE
:10A7800052925E9240FF00000FF000020001FFFEB7
:10A790000000082008220841FFFE08800A412241EB
:10A7A0002A52A66A63C42244264A2A7222410240DF
:10A7B000000000003FF000200040FFFF0000020109
:10A7C00004021B84E868081008680F840802080166
:10A7D000000011002600C40045FF65525552455245
:10A7E0005D522552C55245D2641F540045004600B3
:10A7F00000002004210621043FF82108210800025E
:10A800007F22492249227FFE492249227F220002DB
:10A810000000020422482A52A64163FE26402A5024
:10A82000224900063FF82200220023FF42000200D6
:10A8300000002001212223142D1831E408142A924B
:10A840002A922A92FFFE2A922A923E920812080227
:10A85000000002000202420433F800040A0A7232C5
:10A8600013C21202FE0213F2120A120A023A000284
:10A87000000008420841FFFE0880000041086148CE
:10A8800052484A4845FF4A48524861480108010079
:10A890000000082008C00B00FFFF0900289127D204
:10A8A000F554255825702558F55427D2201100015C
:10A8B00000000422444245927E12441244127F92C8
:10A8C000447E441200123E1200920052FF820002A7
:10A8D00000000080010006001FFFE00400887C905B
:10A8E00044A044C047FF44C044A07C9000880004BA
:10A8F000000020402080210027FF3800E040244055
:10A900002442244124FE254026402440204020406B
:10A9100000000080010006001FFFE0000000200092
:10A92000249F2492A492649224922492249F200033
:10A93000000008403140225E2082278220C2A942C6
:10A94000657E22422442284221C2221F2900300073
:10A9500000002040218027FE3A08220823FC000046
:10A9600040104F104110411041127F11010201FCB3
:10A97000000011901698F89013FF10A0080013FF24
:10A980002A484A498BFF480029FA10010BFE0800AB
:10A9900000000000003E3E02020202020202020229
:10A9A000FFFE02020202020202023F02003F00001A
:10A9B00000000001000200040008003080C04700D1
:10A9C0003800070000C00030000C00020001000148
:10A9D00000000001020242044208423043C07E00EF
:10A9E000420043FC4202420242020202020E000006
:10A9F000000004440CE63544C648044818480102E7
:10AA000009020904FFC80930922852441282021F29
:10AA10000000000000041808683108C10B011D8205
:10AA2000E962091409080914492229C20801000130
:10AA30000000004000423FC46A48AA522A613FFE1B
:10AA400000000800088008620801FFFE08000800F6
:10AA500000001008100C10081FF810101011101230
:10AA6000080C0870FF800802080108020FFC0000B3
:10AA70000000001028902510221024902C90B590F2
:10AA800066BF2490299020D0221025102890001015
:10AA9000000000003FF8221022103FF800000041A3
:10AAA0001FC210441058FFE0105810441FC200414C
:10AAB0000000100410081012106211821E82F08231
:10AAC000108210FE1082108210821082100210027A
:10AAD0000000101010201040108013FF1C82F08224
:10AAE0001082108210821082108210FF100010005D
:10AAF000000002000201420233FC00020001528108
:10AB00004CBD448554858FFD84858C85B4BD008102
:10AB10000000082008C00B00FFFF090008C001006A
:10AB20004100410041007FFF410041004100010020
:10AB30000000010041014102410C7FF04100410051
:10AB40004100410041007FFF410041004100010000
:10AB5000000000810081088288826884088808B02B
:10AB60000FC008B008882884C8820882008100814C
:10AB70000000010101063FF86940A73221013FFEB4
:10AB800000001C0013FC9022704210821502181E57
:10AB900000000400040104017DF555555555555537
:10ABA00055FF5555555555557DF5040104010400D3
:10ABB0000000000200027E7E00420042FF7E004252
:10ABC00002420C42F07E20422842267E20020002F1
:10ABD000000010401080910077FF190000C10002B2
:10ABE0007FC4401840604F80407E40017FC1000715
:10ABF00000000000004244444CC854D06542454126
:10AC0000467E844088409050814880C400620000A5
:10AC1000000004440CE63544C6480C48000111020B
:10AC2000130C15F09900710011FC15021302118E1E
:10AC3000000004001800107C5740354015401540B6
:10AC4000F5FF15401540354857441078140018009A
:10AC50000000000100067FF8444044404440444066
:10AC60007FFE44404440444244417FFE00000000D7
:10AC70000000082008220841FFFE088009000000AB
:10AC80007FFF410141C241344908453479C2000186
:10AC9000000048405740F55755555755F0D55F557A
:10ACA00040D511553155EA5524552A573140214098
:10ACB000000008200620407E318000000FFF08427F
:10ACC00008420842FFFE0842084208420FFF000007
:10ACD000000000001FFF8000600000000000400036
:10ACE0004000400040004000400240017FFE000064
:10ACF000000000400880110023FFCC00000002008B
:10AD000042004202420143FE420042004200020071
:10AD100000002410246025807FFFC480446000026E
:10AD20007C924492449244FE449244927C920082EB
:10AD30000000082008C00B00FFFF09000880010187
:10AD4000120114C290347008103414C2120111019F
:10AD500000000020402030FE0700020004001FFF1A
:10AD6000F244124492447FFC1244124412441004F0
:10AD70000000008007000000FFFF080004081030FA
:10AD800011C11E22F0C4101817E0101810461181CE
:10AD90000000040108091009EF922AB22AEA2AA445
:10ADA0002AA42AA42AAA2AB22FA220012001000143
:10ADB0000000000100067FF8400040004000400015
:10ADC0004000400040004000400040004000400083
:10ADD0000000020002004200420042004202420122
:10ADE0007FFE420042004200420042000200020098
:10ADF0000000000800081FC8924852483248124814
:10AE00001FFF12483248524892481FC800080008E5
:10AE100000000080010006001FFFE0020802098216
:10AE2000087A88026802080E08720B820802000283
:10AE30000000084008420881FFFE090004001901D3
:10AE4000112111D297147108111411E21501190082
:10AE5000000002800C80F7FE2484248A01642718F5
:10AE600039E408222AA22AA2FFFA2AA23EA2082234
:10AE7000000002000200220022FF2A922692A292E3
:10AE80006292229226922A9222FF2200020002005F
:10AE900000001102120414889050502014D0120C9B
:10AEA000110101020E04F1C8103010CC1F02100174
:10AEB0000000082008C00B00FFFF090008C10006C1
:10AEC0007FF84000400040007FFC00020002001EAE
:10AED000000040004FFE400240024FF2491249126A
:10AEE0004FF2491249124FF2400240024FFF400018
:10AEF00000004000400047FF440244024FFE7492AD
:10AF00004492449247FE4402440247FF40004000FE
:10AF10000000000000F83C9024902490249024909D
:10AF2000FFFF24902490249024903C9000F800008F
:10AF30000000000000003FFE200420042004200444
:10AF4000200420042004200420043FFE0000000010
:10AF5000000002000200420033FC00080914090648
:10AF600009FC09080908FF800870880C6802080FAE
:10AF70000000000000001FF8111011101110111036
:10AF8000FFFE11111111111111111FF90001000F14
:10AF90000000000100067FF8400241024102410228
:10AFA00041025FFE410241024122411A4102400238
:10AFB000000000001FFF8000440004F8448054801B
:10AFC0004FFE4490448844F0440240017FFE00005C
:10AFD0000000048008803480E7FE24842488000078
:10AFE0000FE008400840FFFF084008400FE0000065
:10AFF000000000003FFC2108210821083FFC000060
:10B0000008000880086008020801FFFE0800080028
:10B0100000000100010001000100FFFF01020184A6
:10B020000548092011102108410401040102010210
:10B030000000010006001FFFE002003C3FC024FFAB
:10B040002490A4FE649024FE249024913CFF0000F0
:10B050000000080208440FA8F81008680F860000D6
:10B0600001004102410147FE490051006100010019
:10B07000000000000FFF084208420842FFFE08429D
:10B0800008420842FFFE0842084208420FFF000043
:10B090000000008102810C827884088808B008C012
:10B0A000FF8008C008B008880884088200810081F9
:10B0B0000000082008220841FFFE08810902000C58
:10B0C0001FF01100910071001100110011001F808C
:10B0D00000000000000000001FFF11223122512259
:10B0E00091221122112211221FFF000000000000F6
:10B0F0000000082008C00B00FFFF09000A8204229C
:10B100000A1A3282C27232060A1A04E202020202E9
:10B1100000000200420033FE0004000822002AFF63
:10B120002AA82AA8FEA82AAA2AA92AFE22000200E2
:10B130000000002010200C400080FFFF00001140A4
:10B140002150CA484442484153FE604000400040FC
:10B150000000000000007FFE400440044FE448244B
:10B16000482448244FE4400440047FFE00000000CF
:10B170000000000000000FF0082008200820082030
:10B18000FFFF08200820082008200FF00000000022
:10B19000000002000400080037FCE442244224427C
:10B1A000244227C2202220123FE20002000E0000AB
:10B1B0000000082008220841FFFE08800900040062
:10B1C000247F244224427FC24442C442447F04007C
:10B1D000000000003FFC044424841504FFF415041F
:10B1E00024C500063FF82200220023FF420002008F
:10B1F000000004440CE63544C648084800007FFEC1
:10B2000012220A420282FFFE02820A421222000237
:10B21000000004440CE63544C648044818480411AC
:10B22000245125322494FC1825F0241825140613E3
:10B2300000007E9752904A967FE04AA652A07EADCB
:10B240000402040C0470FF800470440C34020401F6
:10B25000000002000200420033FC0009001200045A
:10B26000001800E0FF0000E00018000400020001E8
:10B27000000000007FFF4002441244224442448AFE
:10B2800045065FFA44024402440240027FFF000088
:10B29000000000007FFF401044085B1160E20004E2
:10B2A000001800E0FF0000E00018000400020001A8
:10B2B00000002002202222242324F2A8223022206F
:10B2C000237F24202430F4A82D24242420222002AB
:10B2D0000000000808100820084008900B100C100F
:10B2E000FFFF0C100B100890084008200810000801
:10B2F0000000000100061FF811001108110411F8E8
:10B3000010011002FF841068901850641382101FFF
:10B310000000000000400240124012401240324241
:10B3200032423FFE22402240224022402240004042
:10B330000000001010101190129014901890F090CE
:10B3400017FF109010901090109010901010001097
:10B350000000010101063FF86940A73221013FFECC
:10B360000100027F7C42404240427E42027F020056
:10B3700000002000207F204020402F5E2952A9524B
:10B380006952295229522F5E20402041207F2000FF
:10B3900000000080010006001FFFE00000003FFFEA
:10B3A0002102210421007F824171C10C4102011F51
:10B3B000000000000000200400200C1020180E20C7
:10B3C00010063FE000001000000800000C21FFF410
:10B3D00021220421220629220625220627FFF627FC
:10B3E000220629220629220631221611223E01FFB9
:10B3F000F600000400000000000000030306010442
:10B400000602050003051F1C1F1E1F1E1F1F1E1FF7
:10B410001E1F000034B4000800000020300B0000A4
:10B42000180A000800BB0008300B0020E80E0000DE
:10B43000743F00080124B201380D040C183060C0BC
:10B440006030180C048007290F1B800124101A0299
:10B450008002C004BC056C05E80B900B100E081CA4
:10B46000081C18186033803C1220481D7FF8FFFC30
:10B47000C00CC20CC70CC38CC1CCC1CCC38CC70CD4
:10B48000CE0C9C0C39FC13F81C1815C84CDCECCF06
:10B49000CCC78CC78CCFCCDCECC84CC00CFFFC1AE2
:10B4A00069024AE8024BC008024819FFF8DFC8DF0A
:10B4B00088DF08DE08DC08D868C0E8C1E8C3E8C750
:10B4C000E8FFF81E4808DE68DEE8DDE8D92E7A18C5
:10B4D00044100BF8FFF0FFE0FFC0FF80FF12FE12E8
:10B4E000FC12F812F012E012C022801A700211252C
:10B4F00003F003F01C1FF01F06192A0A10F016AD06
:10B50000AAA0555016AD0AA01550161C02A0011095
:10B5100099161220190AE91616FE70BA70D61EEF97
:10B52000F0D7F0BA68696E180EEFB0DFF0BDE07DBD
:10B53000F07DF001F07F021CBFE0DF1411280AC08B
:10B540001FC03FC07FC07FE0241C7FE07F0E1B1F19
:10B55000C0B5101AD01FA03F407E807D60FAF0F584
:10B56000F06BE057C02FC05FC080C03FFF280A7F4C
:10B57000F980FFF0C0FFE040031BF0C00F19152950
:10B580001828083F80FE1FC0FC0F031909190F4936
:10B5900018380867FF80C3FFC081031909190F1904
:10B5A000151112101A300212383A780212FC480BA8
:10B5B000FF01FC01FC037C037C02022AFC026808F8
:10B5C00003FC03FE03FE010212FF1AFF2A29022ACE
:10B5D000F8021A01021E03F807F00FE41A3FBC1824
:10B5E00008FFE0FEE0FCC0F0BD428012084AE822FD
:10B5F000380903800738067C0EFE0228087C0F38C5
:10B600000F800FF8023A1F02780A17F837F827F868
:10B6100067F847023A4F02101A6F806F383E7C3E3F
:10B62000FE3EFE1EFE1E7C3F387F807FE06FC06FB7
:10B630008040524012011D018001C0021AE0025AEE
:10B64000F0023994190219CC690219C439023A0777
:10B65000025C0FFC1F161A0706491419021CF40796
:10B66000FE043AF0E672F0442D2D0113694B4608B2
:10B670000102090A13357346080203011213AD755E
:10B6800046080304021A13956C46080405031E13AA
:10B69000DD6D4608050604221315724608060705E7
:10B6A0002513717446080708062D134968460808D3
:10B6B00009072E139D7A46080901084413C16A2E12
:10B6C000080A0B110A791A916C2D0B0C0A0B0C1A33
:10B6D000AD0C2D0C0D0B0C0C1AC90C2D0D0E0C0DF8
:10B6E0000C1AE50C2D0E0F0D0E0C1A01602D0F100B
:10B6F0000E0F0C1A1D0C2D10110F100C1A390C2DD9
:10B70000110A10110C1A550C3612131912021309D2
:10B71000762E08131412130C1A250C2D141513145D
:10B720000C1A410C2D151614150C1A5D0C2D16173C
:10B7300015160C1A790C2D171816170C1A950C2DB6
:10B74000181917180C1AB10C2D191218190C1ACD3A
:10B750000C2E1A1B1D1A03F019FC2D1B1C1A1B0C96
:10B760001301772E081C1D1B1C0C13D5672E081DFA
:10B770001A1C1D0C13F16C37081E1F211E041385A3
:10B780007A2E081F201E1F0C1AF90C2D20211F20B5
:10B790000C13E9663E08211E20210C196036222375
:10B7A00024220513FD711A080B2A230C1AC96019EB
:10B7B0000B2A240C13A96A2F0825262C250690197C
:10B7C000F02D262725260C1AE90C2D272826270CD4
:10B7D0001305752E08282927280C1A210C2D292A33
:10B7E00028290C1A3D0C2D2A2B292A0C1A590C2D0C
:10B7F0002B2C2A2B0C1A750C2D2C252B2C0C1A916A
:10B800000C222D33070713A56837082E2F33340871
:10B810001AEDD82D2F302E370C1A4D842D30312FA4
:10B820003A0C1AA1A82D3132303D0C13717C2E0830
:10B83000323331400C1AE1B42D332E32420C138DC9
:10B840006B3708343536342E1A1918190B2A350C73
:10B850001A2DFC190B2A360C13396E370837383974
:10B86000372F1379691A080B2A380C1A0178190B2B
:10B870002A390C13096D37083A3B3C3A3013D56F1F
:10B880001A080B2A3B0C13C1701A080B2A3C0C1A1D
:10B89000E948363D3E3F3D3113117B1A080B2A3EE5
:10B8A0000C1AD10C190B2A3F0C138972370840402F
:10B8B0004041321399792E08414141320C133D78B1
:10B8C0002F0842424243334819B42D434343330CBB
:10B8D00013556C370844444409091A1D1881120A8B
:10B8E000120B120C120D120E120F12101211121254
:10B8F0001213121412151216121712181219121E00
:10B90000121F122012211222122312241225122693
:10B91000122712281229122A122B122C1234123535
:10B920001236123712381239123A123B123C123DBB
:10B93000123E123F0A50FF015ADF085ACF085AC779
:10B94000084BC3FB084BC1F3085BC0E3085A43082C
:10B95000110A2D1F08114A7F085A3F085A7F084ACA
:10B96000FF085A01085A03082C07FF07084B800FED
:10B970009B19471A9F0712FE3C3FFFBF083A7F08FA
:10B9800012FC3AFF183BF801C3180BFBF803FFFF4A
:10B99000E7FFFFF9F03D19BA1CF8E00F0D19081A7E
:10B9A00060861AFC08112B3FF08912F83A7FE912E1
:10B9B000F8393E193F3BFE3F081A032529084B077B
:10B9C000F1082D0FE7FFFD081E1F8FFFFCE108386F
:10B9D0000B3FBFFFFC6BFFFFF07F9F081AE075294C
:10B9E000081AE1751EFC65FFFFC3BF1AFCC02A8759
:10B9F0006F1D61FFFF8E0C29202A18AB19084A33EE
:10BA0000082BFE47082F61FFFC1FFFC08F2BFC3F58
:10BA1000081C61FFF8F8211B6DFF7D39085AF708F3
:10BA2000190119085A7108195439081960A901290E
:10BA3000703EFFFFC7FFF8305CC7FFF0085AE00810
:10BA40005AC0203A80404BC7FF485BC7FE084AFCFB
:10BA5000504BC7F8704CC7F004084BE00C084BC0C3
:10BA60001C084B803C30113A7C3012C04AFCA05A72
:10BA700001085A03084A07904CC00FFCB05A1F1027
:10BA80003C3FFC6F084C7FFCEFB85AFD08DBFFE140
:10BA9000E0492889085970F91859C84A0CC04CFC6B
:10BAA0001C6BC84A3C084BF07C083CE0FC65084A2B
:10BAB000C1904BC783904BC707B05BC60FB82169D5
:10BAC000086970699069104AFD085A01083A03082C
:10BAD00029C95908095801A132384DF401E8030475
:10BAE0002902690CA90453401F84A24A0468090171
:10BAF000020304060708090C691005000204060881
:0400000508000101ED
:00000001FF
